{
	"data": {
		"bytecode": {
			"linkReferences": {},
			"object": "608060405234801561001057600080fd5b50610237806100206000396000f3fe608060405234801561001057600080fd5b506004361061002b5760003560e01c80632e32502014610030575b600080fd5b61004a60048036038101906100459190610142565b610060565b60405161005791906101e6565b60405180910390f35b600080821180156100725750600c8211155b156100805760009050610102565b600c82118015610091575060188211155b1561009f5760019050610102565b6018821180156100b05750609b8211155b156100be5760029050610102565b609b821180156100cf575060e48211155b156100dd5760039050610102565b60e4821180156100ef57506102d08211155b156100fd5760049050610102565b600590505b919050565b600080fd5b6000819050919050565b61011f8161010c565b811461012a57600080fd5b50565b60008135905061013c81610116565b92915050565b60006020828403121561015857610157610107565b5b60006101668482850161012d565b91505092915050565b7f4e487b7100000000000000000000000000000000000000000000000000000000600052602160045260246000fd5b600681106101af576101ae61016f565b5b50565b60008190506101c08261019e565b919050565b60006101d0826101b2565b9050919050565b6101e0816101c5565b82525050565b60006020820190506101fb60008301846101d7565b9291505056fea26469706673582212206a1724279b0f53b473eb995fe4b59e4fed9b1e11750afa8355f1fe06c78b2d2764736f6c63430008100033",
			"opcodes": "PUSH1 0x80 PUSH1 0x40 MSTORE CALLVALUE DUP1 ISZERO PUSH2 0x10 JUMPI PUSH1 0x0 DUP1 REVERT JUMPDEST POP PUSH2 0x237 DUP1 PUSH2 0x20 PUSH1 0x0 CODECOPY PUSH1 0x0 RETURN INVALID PUSH1 0x80 PUSH1 0x40 MSTORE CALLVALUE DUP1 ISZERO PUSH2 0x10 JUMPI PUSH1 0x0 DUP1 REVERT JUMPDEST POP PUSH1 0x4 CALLDATASIZE LT PUSH2 0x2B JUMPI PUSH1 0x0 CALLDATALOAD PUSH1 0xE0 SHR DUP1 PUSH4 0x2E325020 EQ PUSH2 0x30 JUMPI JUMPDEST PUSH1 0x0 DUP1 REVERT JUMPDEST PUSH2 0x4A PUSH1 0x4 DUP1 CALLDATASIZE SUB DUP2 ADD SWAP1 PUSH2 0x45 SWAP2 SWAP1 PUSH2 0x142 JUMP JUMPDEST PUSH2 0x60 JUMP JUMPDEST PUSH1 0x40 MLOAD PUSH2 0x57 SWAP2 SWAP1 PUSH2 0x1E6 JUMP JUMPDEST PUSH1 0x40 MLOAD DUP1 SWAP2 SUB SWAP1 RETURN JUMPDEST PUSH1 0x0 DUP1 DUP3 GT DUP1 ISZERO PUSH2 0x72 JUMPI POP PUSH1 0xC DUP3 GT ISZERO JUMPDEST ISZERO PUSH2 0x80 JUMPI PUSH1 0x0 SWAP1 POP PUSH2 0x102 JUMP JUMPDEST PUSH1 0xC DUP3 GT DUP1 ISZERO PUSH2 0x91 JUMPI POP PUSH1 0x18 DUP3 GT ISZERO JUMPDEST ISZERO PUSH2 0x9F JUMPI PUSH1 0x1 SWAP1 POP PUSH2 0x102 JUMP JUMPDEST PUSH1 0x18 DUP3 GT DUP1 ISZERO PUSH2 0xB0 JUMPI POP PUSH1 0x9B DUP3 GT ISZERO JUMPDEST ISZERO PUSH2 0xBE JUMPI PUSH1 0x2 SWAP1 POP PUSH2 0x102 JUMP JUMPDEST PUSH1 0x9B DUP3 GT DUP1 ISZERO PUSH2 0xCF JUMPI POP PUSH1 0xE4 DUP3 GT ISZERO JUMPDEST ISZERO PUSH2 0xDD JUMPI PUSH1 0x3 SWAP1 POP PUSH2 0x102 JUMP JUMPDEST PUSH1 0xE4 DUP3 GT DUP1 ISZERO PUSH2 0xEF JUMPI POP PUSH2 0x2D0 DUP3 GT ISZERO JUMPDEST ISZERO PUSH2 0xFD JUMPI PUSH1 0x4 SWAP1 POP PUSH2 0x102 JUMP JUMPDEST PUSH1 0x5 SWAP1 POP JUMPDEST SWAP2 SWAP1 POP JUMP JUMPDEST PUSH1 0x0 DUP1 REVERT JUMPDEST PUSH1 0x0 DUP2 SWAP1 POP SWAP2 SWAP1 POP JUMP JUMPDEST PUSH2 0x11F DUP2 PUSH2 0x10C JUMP JUMPDEST DUP2 EQ PUSH2 0x12A JUMPI PUSH1 0x0 DUP1 REVERT JUMPDEST POP JUMP JUMPDEST PUSH1 0x0 DUP2 CALLDATALOAD SWAP1 POP PUSH2 0x13C DUP2 PUSH2 0x116 JUMP JUMPDEST SWAP3 SWAP2 POP POP JUMP JUMPDEST PUSH1 0x0 PUSH1 0x20 DUP3 DUP5 SUB SLT ISZERO PUSH2 0x158 JUMPI PUSH2 0x157 PUSH2 0x107 JUMP JUMPDEST JUMPDEST PUSH1 0x0 PUSH2 0x166 DUP5 DUP3 DUP6 ADD PUSH2 0x12D JUMP JUMPDEST SWAP2 POP POP SWAP3 SWAP2 POP POP JUMP JUMPDEST PUSH32 0x4E487B7100000000000000000000000000000000000000000000000000000000 PUSH1 0x0 MSTORE PUSH1 0x21 PUSH1 0x4 MSTORE PUSH1 0x24 PUSH1 0x0 REVERT JUMPDEST PUSH1 0x6 DUP2 LT PUSH2 0x1AF JUMPI PUSH2 0x1AE PUSH2 0x16F JUMP JUMPDEST JUMPDEST POP JUMP JUMPDEST PUSH1 0x0 DUP2 SWAP1 POP PUSH2 0x1C0 DUP3 PUSH2 0x19E JUMP JUMPDEST SWAP2 SWAP1 POP JUMP JUMPDEST PUSH1 0x0 PUSH2 0x1D0 DUP3 PUSH2 0x1B2 JUMP JUMPDEST SWAP1 POP SWAP2 SWAP1 POP JUMP JUMPDEST PUSH2 0x1E0 DUP2 PUSH2 0x1C5 JUMP JUMPDEST DUP3 MSTORE POP POP JUMP JUMPDEST PUSH1 0x0 PUSH1 0x20 DUP3 ADD SWAP1 POP PUSH2 0x1FB PUSH1 0x0 DUP4 ADD DUP5 PUSH2 0x1D7 JUMP JUMPDEST SWAP3 SWAP2 POP POP JUMP INVALID LOG2 PUSH5 0x6970667358 0x22 SLT KECCAK256 PUSH11 0x1724279B0F53B473EB995F 0xE4 0xB5 SWAP15 0x4F 0xED SWAP12 0x1E GT PUSH22 0xAFA8355F1FE06C78B2D2764736F6C63430008100033 "
		},
		"gasEstimates": {
			"creation": {
				"codeDepositCost": "113400",
				"executionCost": "159",
				"totalCost": "113559"
			},
			"external": {
				"getStage(uint256)": "986"
			}
		},
		"methodIdentifiers": {
			"getStage(uint256)": "2e325020"
		}
	},
	"abi": [
		{
			"inputs": [
				{
					"internalType": "uint256",
					"name": "months",
					"type": "uint256"
				}
			],
			"name": "getStage",
			"outputs": [
				{
					"internalType": "enum Lifecycle.stage",
					"name": "",
					"type": "uint8"
				}
			],
			"stateMutability": "pure",
			"type": "function"
		}
	]
}