{
	"STD1/SelfWhiteList/SelfWhiteList.sol": {
		"SelfWhiteList": {
			"abi": [
				{
					"inputs": [
						{
							"internalType": "uint256",
							"name": "",
							"type": "uint256"
						}
					],
					"name": "arrayWhitelist",
					"outputs": [
						{
							"internalType": "address",
							"name": "",
							"type": "address"
						}
					],
					"stateMutability": "view",
					"type": "function"
				},
				{
					"inputs": [],
					"name": "check",
					"outputs": [
						{
							"internalType": "bool",
							"name": "",
							"type": "bool"
						}
					],
					"stateMutability": "view",
					"type": "function"
				},
				{
					"inputs": [
						{
							"internalType": "address",
							"name": "user",
							"type": "address"
						}
					],
					"name": "whitelist",
					"outputs": [],
					"stateMutability": "nonpayable",
					"type": "function"
				}
			],
			"devdoc": {
				"kind": "dev",
				"methods": {},
				"version": 1
			},
			"evm": {
				"assembly": "    /* \"STD1/SelfWhiteList/SelfWhiteList.sol\":58:593  contract SelfWhiteList{... */\n  mstore(0x40, 0x80)\n  callvalue\n  dup1\n  iszero\n  tag_1\n  jumpi\n  0x00\n  dup1\n  revert\ntag_1:\n  pop\n  dataSize(sub_0)\n  dup1\n  dataOffset(sub_0)\n  0x00\n  codecopy\n  0x00\n  return\nstop\n\nsub_0: assembly {\n        /* \"STD1/SelfWhiteList/SelfWhiteList.sol\":58:593  contract SelfWhiteList{... */\n      mstore(0x40, 0x80)\n      callvalue\n      dup1\n      iszero\n      tag_1\n      jumpi\n      0x00\n      dup1\n      revert\n    tag_1:\n      pop\n      jumpi(tag_2, lt(calldatasize, 0x04))\n      shr(0xe0, calldataload(0x00))\n      dup1\n      0x7f83b8ee\n      eq\n      tag_3\n      jumpi\n      dup1\n      0x919840ad\n      eq\n      tag_4\n      jumpi\n      dup1\n      0x9b19251a\n      eq\n      tag_5\n      jumpi\n    tag_2:\n      0x00\n      dup1\n      revert\n        /* \"STD1/SelfWhiteList/SelfWhiteList.sol\":87:118  address[] public arrayWhitelist */\n    tag_3:\n      tag_6\n      0x04\n      dup1\n      calldatasize\n      sub\n      dup2\n      add\n      swap1\n      tag_7\n      swap2\n      swap1\n      tag_8\n      jump\t// in\n    tag_7:\n      tag_9\n      jump\t// in\n    tag_6:\n      mload(0x40)\n      tag_10\n      swap2\n      swap1\n      tag_11\n      jump\t// in\n    tag_10:\n      mload(0x40)\n      dup1\n      swap2\n      sub\n      swap1\n      return\n        /* \"STD1/SelfWhiteList/SelfWhiteList.sol\":356:591  function check() public view returns (bool){... */\n    tag_4:\n      tag_12\n      tag_13\n      jump\t// in\n    tag_12:\n      mload(0x40)\n      tag_14\n      swap2\n      swap1\n      tag_15\n      jump\t// in\n    tag_14:\n      mload(0x40)\n      dup1\n      swap2\n      sub\n      swap1\n      return\n        /* \"STD1/SelfWhiteList/SelfWhiteList.sol\":125:350  function whitelist(address user) public{... */\n    tag_5:\n      tag_16\n      0x04\n      dup1\n      calldatasize\n      sub\n      dup2\n      add\n      swap1\n      tag_17\n      swap2\n      swap1\n      tag_18\n      jump\t// in\n    tag_17:\n      tag_19\n      jump\t// in\n    tag_16:\n      stop\n        /* \"STD1/SelfWhiteList/SelfWhiteList.sol\":87:118  address[] public arrayWhitelist */\n    tag_9:\n      0x00\n      dup2\n      dup2\n      sload\n      dup2\n      lt\n      tag_20\n      jumpi\n      0x00\n      dup1\n      revert\n    tag_20:\n      swap1\n      0x00\n      mstore\n      keccak256(0x00, 0x20)\n      add\n      0x00\n      swap2\n      pop\n      sload\n      swap1\n      0x0100\n      exp\n      swap1\n      div\n      0xffffffffffffffffffffffffffffffffffffffff\n      and\n      dup2\n      jump\t// out\n        /* \"STD1/SelfWhiteList/SelfWhiteList.sol\":356:591  function check() public view returns (bool){... */\n    tag_13:\n        /* \"STD1/SelfWhiteList/SelfWhiteList.sol\":394:398  bool */\n      0x00\n        /* \"STD1/SelfWhiteList/SelfWhiteList.sol\":413:419  uint i */\n      dup1\n        /* \"STD1/SelfWhiteList/SelfWhiteList.sol\":422:423  0 */\n      0x00\n        /* \"STD1/SelfWhiteList/SelfWhiteList.sol\":413:423  uint i = 0 */\n      swap1\n      pop\n        /* \"STD1/SelfWhiteList/SelfWhiteList.sol\":429:443  arrayWhitelist */\n      0x00\n        /* \"STD1/SelfWhiteList/SelfWhiteList.sol\":429:450  arrayWhitelist.length */\n      dup1\n      sload\n      swap1\n      pop\n        /* \"STD1/SelfWhiteList/SelfWhiteList.sol\":425:426  i */\n      dup2\n        /* \"STD1/SelfWhiteList/SelfWhiteList.sol\":425:450  i < arrayWhitelist.length */\n      lt\n        /* \"STD1/SelfWhiteList/SelfWhiteList.sol\":409:585  for(uint i = 0; i < arrayWhitelist.length; i++){... */\n      iszero\n      tag_24\n      jumpi\n        /* \"STD1/SelfWhiteList/SelfWhiteList.sol\":494:504  msg.sender */\n      caller\n        /* \"STD1/SelfWhiteList/SelfWhiteList.sol\":473:504  arrayWhitelist[i] == msg.sender */\n      0xffffffffffffffffffffffffffffffffffffffff\n      and\n        /* \"STD1/SelfWhiteList/SelfWhiteList.sol\":473:487  arrayWhitelist */\n      0x00\n        /* \"STD1/SelfWhiteList/SelfWhiteList.sol\":488:489  i */\n      dup3\n        /* \"STD1/SelfWhiteList/SelfWhiteList.sol\":473:490  arrayWhitelist[i] */\n      dup2\n      sload\n      dup2\n      lt\n      tag_26\n      jumpi\n      tag_27\n      tag_28\n      jump\t// in\n    tag_27:\n    tag_26:\n      swap1\n      0x00\n      mstore\n      keccak256(0x00, 0x20)\n      add\n      0x00\n      swap1\n      sload\n      swap1\n      0x0100\n      exp\n      swap1\n      div\n      0xffffffffffffffffffffffffffffffffffffffff\n      and\n        /* \"STD1/SelfWhiteList/SelfWhiteList.sol\":473:504  arrayWhitelist[i] == msg.sender */\n      0xffffffffffffffffffffffffffffffffffffffff\n      and\n      sub\n        /* \"STD1/SelfWhiteList/SelfWhiteList.sol\":470:549  if(arrayWhitelist[i] == msg.sender){... */\n      tag_30\n      jumpi\n        /* \"STD1/SelfWhiteList/SelfWhiteList.sol\":530:534  true */\n      0x01\n        /* \"STD1/SelfWhiteList/SelfWhiteList.sol\":523:534  return true */\n      swap2\n      pop\n      pop\n      jump(tag_22)\n        /* \"STD1/SelfWhiteList/SelfWhiteList.sol\":470:549  if(arrayWhitelist[i] == msg.sender){... */\n    tag_30:\n        /* \"STD1/SelfWhiteList/SelfWhiteList.sol\":569:574  false */\n      0x00\n        /* \"STD1/SelfWhiteList/SelfWhiteList.sol\":562:574  return false */\n      swap2\n      pop\n      pop\n      jump(tag_22)\n        /* \"STD1/SelfWhiteList/SelfWhiteList.sol\":409:585  for(uint i = 0; i < arrayWhitelist.length; i++){... */\n    tag_24:\n      pop\n        /* \"STD1/SelfWhiteList/SelfWhiteList.sol\":356:591  function check() public view returns (bool){... */\n    tag_22:\n      swap1\n      jump\t// out\n        /* \"STD1/SelfWhiteList/SelfWhiteList.sol\":125:350  function whitelist(address user) public{... */\n    tag_19:\n        /* \"STD1/SelfWhiteList/SelfWhiteList.sol\":178:184  uint i */\n      0x00\n        /* \"STD1/SelfWhiteList/SelfWhiteList.sol\":174:344  for(uint i = 0; i < arrayWhitelist.length; i++){... */\n    tag_34:\n        /* \"STD1/SelfWhiteList/SelfWhiteList.sol\":194:208  arrayWhitelist */\n      0x00\n        /* \"STD1/SelfWhiteList/SelfWhiteList.sol\":194:215  arrayWhitelist.length */\n      dup1\n      sload\n      swap1\n      pop\n        /* \"STD1/SelfWhiteList/SelfWhiteList.sol\":190:191  i */\n      dup2\n        /* \"STD1/SelfWhiteList/SelfWhiteList.sol\":190:215  i < arrayWhitelist.length */\n      lt\n        /* \"STD1/SelfWhiteList/SelfWhiteList.sol\":174:344  for(uint i = 0; i < arrayWhitelist.length; i++){... */\n      iszero\n      tag_35\n      jumpi\n        /* \"STD1/SelfWhiteList/SelfWhiteList.sol\":259:269  msg.sender */\n      caller\n        /* \"STD1/SelfWhiteList/SelfWhiteList.sol\":238:269  arrayWhitelist[i] != msg.sender */\n      0xffffffffffffffffffffffffffffffffffffffff\n      and\n        /* \"STD1/SelfWhiteList/SelfWhiteList.sol\":238:252  arrayWhitelist */\n      0x00\n        /* \"STD1/SelfWhiteList/SelfWhiteList.sol\":253:254  i */\n      dup3\n        /* \"STD1/SelfWhiteList/SelfWhiteList.sol\":238:255  arrayWhitelist[i] */\n      dup2\n      sload\n      dup2\n      lt\n      tag_37\n      jumpi\n      tag_38\n      tag_28\n      jump\t// in\n    tag_38:\n    tag_37:\n      swap1\n      0x00\n      mstore\n      keccak256(0x00, 0x20)\n      add\n      0x00\n      swap1\n      sload\n      swap1\n      0x0100\n      exp\n      swap1\n      div\n      0xffffffffffffffffffffffffffffffffffffffff\n      and\n        /* \"STD1/SelfWhiteList/SelfWhiteList.sol\":238:269  arrayWhitelist[i] != msg.sender */\n      0xffffffffffffffffffffffffffffffffffffffff\n      and\n      eq\n        /* \"STD1/SelfWhiteList/SelfWhiteList.sol\":235:334  if(arrayWhitelist[i] != msg.sender){... */\n      tag_40\n      jumpi\n        /* \"STD1/SelfWhiteList/SelfWhiteList.sol\":288:302  arrayWhitelist */\n      0x00\n        /* \"STD1/SelfWhiteList/SelfWhiteList.sol\":308:318  msg.sender */\n      caller\n        /* \"STD1/SelfWhiteList/SelfWhiteList.sol\":288:319  arrayWhitelist.push(msg.sender) */\n      swap1\n      dup1\n      0x01\n      dup2\n      sload\n      add\n      dup1\n      dup3\n      sstore\n      dup1\n      swap2\n      pop\n      pop\n      0x01\n      swap1\n      sub\n      swap1\n      0x00\n      mstore\n      keccak256(0x00, 0x20)\n      add\n      0x00\n      swap1\n      swap2\n      swap1\n      swap2\n      swap1\n      swap2\n      0x0100\n      exp\n      dup2\n      sload\n      dup2\n      0xffffffffffffffffffffffffffffffffffffffff\n      mul\n      not\n      and\n      swap1\n      dup4\n      0xffffffffffffffffffffffffffffffffffffffff\n      and\n      mul\n      or\n      swap1\n      sstore\n      pop\n        /* \"STD1/SelfWhiteList/SelfWhiteList.sol\":235:334  if(arrayWhitelist[i] != msg.sender){... */\n    tag_40:\n        /* \"STD1/SelfWhiteList/SelfWhiteList.sol\":217:220  i++ */\n      dup1\n      dup1\n      tag_42\n      swap1\n      tag_32\n      jump\t// in\n    tag_42:\n      swap2\n      pop\n      pop\n        /* \"STD1/SelfWhiteList/SelfWhiteList.sol\":174:344  for(uint i = 0; i < arrayWhitelist.length; i++){... */\n      jump(tag_34)\n    tag_35:\n      pop\n        /* \"STD1/SelfWhiteList/SelfWhiteList.sol\":125:350  function whitelist(address user) public{... */\n      pop\n      jump\t// out\n        /* \"#utility.yul\":88:205   */\n    tag_44:\n        /* \"#utility.yul\":197:198   */\n      0x00\n        /* \"#utility.yul\":194:195   */\n      dup1\n        /* \"#utility.yul\":187:199   */\n      revert\n        /* \"#utility.yul\":334:411   */\n    tag_46:\n        /* \"#utility.yul\":371:378   */\n      0x00\n        /* \"#utility.yul\":400:405   */\n      dup2\n        /* \"#utility.yul\":389:405   */\n      swap1\n      pop\n        /* \"#utility.yul\":334:411   */\n      swap2\n      swap1\n      pop\n      jump\t// out\n        /* \"#utility.yul\":417:539   */\n    tag_47:\n        /* \"#utility.yul\":490:514   */\n      tag_63\n        /* \"#utility.yul\":508:513   */\n      dup2\n        /* \"#utility.yul\":490:514   */\n      tag_46\n      jump\t// in\n    tag_63:\n        /* \"#utility.yul\":483:488   */\n      dup2\n        /* \"#utility.yul\":480:515   */\n      eq\n        /* \"#utility.yul\":470:533   */\n      tag_64\n      jumpi\n        /* \"#utility.yul\":529:530   */\n      0x00\n        /* \"#utility.yul\":526:527   */\n      dup1\n        /* \"#utility.yul\":519:531   */\n      revert\n        /* \"#utility.yul\":470:533   */\n    tag_64:\n        /* \"#utility.yul\":417:539   */\n      pop\n      jump\t// out\n        /* \"#utility.yul\":545:684   */\n    tag_48:\n        /* \"#utility.yul\":591:596   */\n      0x00\n        /* \"#utility.yul\":629:635   */\n      dup2\n        /* \"#utility.yul\":616:636   */\n      calldataload\n        /* \"#utility.yul\":607:636   */\n      swap1\n      pop\n        /* \"#utility.yul\":645:678   */\n      tag_66\n        /* \"#utility.yul\":672:677   */\n      dup2\n        /* \"#utility.yul\":645:678   */\n      tag_47\n      jump\t// in\n    tag_66:\n        /* \"#utility.yul\":545:684   */\n      swap3\n      swap2\n      pop\n      pop\n      jump\t// out\n        /* \"#utility.yul\":690:1019   */\n    tag_8:\n        /* \"#utility.yul\":749:755   */\n      0x00\n        /* \"#utility.yul\":798:800   */\n      0x20\n        /* \"#utility.yul\":786:795   */\n      dup3\n        /* \"#utility.yul\":777:784   */\n      dup5\n        /* \"#utility.yul\":773:796   */\n      sub\n        /* \"#utility.yul\":769:801   */\n      slt\n        /* \"#utility.yul\":766:885   */\n      iszero\n      tag_68\n      jumpi\n        /* \"#utility.yul\":804:883   */\n      tag_69\n      tag_44\n      jump\t// in\n    tag_69:\n        /* \"#utility.yul\":766:885   */\n    tag_68:\n        /* \"#utility.yul\":924:925   */\n      0x00\n        /* \"#utility.yul\":949:1002   */\n      tag_70\n        /* \"#utility.yul\":994:1001   */\n      dup5\n        /* \"#utility.yul\":985:991   */\n      dup3\n        /* \"#utility.yul\":974:983   */\n      dup6\n        /* \"#utility.yul\":970:992   */\n      add\n        /* \"#utility.yul\":949:1002   */\n      tag_48\n      jump\t// in\n    tag_70:\n        /* \"#utility.yul\":939:1002   */\n      swap2\n      pop\n        /* \"#utility.yul\":895:1012   */\n      pop\n        /* \"#utility.yul\":690:1019   */\n      swap3\n      swap2\n      pop\n      pop\n      jump\t// out\n        /* \"#utility.yul\":1025:1151   */\n    tag_49:\n        /* \"#utility.yul\":1062:1069   */\n      0x00\n        /* \"#utility.yul\":1102:1144   */\n      0xffffffffffffffffffffffffffffffffffffffff\n        /* \"#utility.yul\":1095:1100   */\n      dup3\n        /* \"#utility.yul\":1091:1145   */\n      and\n        /* \"#utility.yul\":1080:1145   */\n      swap1\n      pop\n        /* \"#utility.yul\":1025:1151   */\n      swap2\n      swap1\n      pop\n      jump\t// out\n        /* \"#utility.yul\":1157:1253   */\n    tag_50:\n        /* \"#utility.yul\":1194:1201   */\n      0x00\n        /* \"#utility.yul\":1223:1247   */\n      tag_73\n        /* \"#utility.yul\":1241:1246   */\n      dup3\n        /* \"#utility.yul\":1223:1247   */\n      tag_49\n      jump\t// in\n    tag_73:\n        /* \"#utility.yul\":1212:1247   */\n      swap1\n      pop\n        /* \"#utility.yul\":1157:1253   */\n      swap2\n      swap1\n      pop\n      jump\t// out\n        /* \"#utility.yul\":1259:1377   */\n    tag_51:\n        /* \"#utility.yul\":1346:1370   */\n      tag_75\n        /* \"#utility.yul\":1364:1369   */\n      dup2\n        /* \"#utility.yul\":1346:1370   */\n      tag_50\n      jump\t// in\n    tag_75:\n        /* \"#utility.yul\":1341:1344   */\n      dup3\n        /* \"#utility.yul\":1334:1371   */\n      mstore\n        /* \"#utility.yul\":1259:1377   */\n      pop\n      pop\n      jump\t// out\n        /* \"#utility.yul\":1383:1605   */\n    tag_11:\n        /* \"#utility.yul\":1476:1480   */\n      0x00\n        /* \"#utility.yul\":1514:1516   */\n      0x20\n        /* \"#utility.yul\":1503:1512   */\n      dup3\n        /* \"#utility.yul\":1499:1517   */\n      add\n        /* \"#utility.yul\":1491:1517   */\n      swap1\n      pop\n        /* \"#utility.yul\":1527:1598   */\n      tag_77\n        /* \"#utility.yul\":1595:1596   */\n      0x00\n        /* \"#utility.yul\":1584:1593   */\n      dup4\n        /* \"#utility.yul\":1580:1597   */\n      add\n        /* \"#utility.yul\":1571:1577   */\n      dup5\n        /* \"#utility.yul\":1527:1598   */\n      tag_51\n      jump\t// in\n    tag_77:\n        /* \"#utility.yul\":1383:1605   */\n      swap3\n      swap2\n      pop\n      pop\n      jump\t// out\n        /* \"#utility.yul\":1611:1701   */\n    tag_52:\n        /* \"#utility.yul\":1645:1652   */\n      0x00\n        /* \"#utility.yul\":1688:1693   */\n      dup2\n        /* \"#utility.yul\":1681:1694   */\n      iszero\n        /* \"#utility.yul\":1674:1695   */\n      iszero\n        /* \"#utility.yul\":1663:1695   */\n      swap1\n      pop\n        /* \"#utility.yul\":1611:1701   */\n      swap2\n      swap1\n      pop\n      jump\t// out\n        /* \"#utility.yul\":1707:1816   */\n    tag_53:\n        /* \"#utility.yul\":1788:1809   */\n      tag_80\n        /* \"#utility.yul\":1803:1808   */\n      dup2\n        /* \"#utility.yul\":1788:1809   */\n      tag_52\n      jump\t// in\n    tag_80:\n        /* \"#utility.yul\":1783:1786   */\n      dup3\n        /* \"#utility.yul\":1776:1810   */\n      mstore\n        /* \"#utility.yul\":1707:1816   */\n      pop\n      pop\n      jump\t// out\n        /* \"#utility.yul\":1822:2032   */\n    tag_15:\n        /* \"#utility.yul\":1909:1913   */\n      0x00\n        /* \"#utility.yul\":1947:1949   */\n      0x20\n        /* \"#utility.yul\":1936:1945   */\n      dup3\n        /* \"#utility.yul\":1932:1950   */\n      add\n        /* \"#utility.yul\":1924:1950   */\n      swap1\n      pop\n        /* \"#utility.yul\":1960:2025   */\n      tag_82\n        /* \"#utility.yul\":2022:2023   */\n      0x00\n        /* \"#utility.yul\":2011:2020   */\n      dup4\n        /* \"#utility.yul\":2007:2024   */\n      add\n        /* \"#utility.yul\":1998:2004   */\n      dup5\n        /* \"#utility.yul\":1960:2025   */\n      tag_53\n      jump\t// in\n    tag_82:\n        /* \"#utility.yul\":1822:2032   */\n      swap3\n      swap2\n      pop\n      pop\n      jump\t// out\n        /* \"#utility.yul\":2038:2160   */\n    tag_54:\n        /* \"#utility.yul\":2111:2135   */\n      tag_84\n        /* \"#utility.yul\":2129:2134   */\n      dup2\n        /* \"#utility.yul\":2111:2135   */\n      tag_50\n      jump\t// in\n    tag_84:\n        /* \"#utility.yul\":2104:2109   */\n      dup2\n        /* \"#utility.yul\":2101:2136   */\n      eq\n        /* \"#utility.yul\":2091:2154   */\n      tag_85\n      jumpi\n        /* \"#utility.yul\":2150:2151   */\n      0x00\n        /* \"#utility.yul\":2147:2148   */\n      dup1\n        /* \"#utility.yul\":2140:2152   */\n      revert\n        /* \"#utility.yul\":2091:2154   */\n    tag_85:\n        /* \"#utility.yul\":2038:2160   */\n      pop\n      jump\t// out\n        /* \"#utility.yul\":2166:2305   */\n    tag_55:\n        /* \"#utility.yul\":2212:2217   */\n      0x00\n        /* \"#utility.yul\":2250:2256   */\n      dup2\n        /* \"#utility.yul\":2237:2257   */\n      calldataload\n        /* \"#utility.yul\":2228:2257   */\n      swap1\n      pop\n        /* \"#utility.yul\":2266:2299   */\n      tag_87\n        /* \"#utility.yul\":2293:2298   */\n      dup2\n        /* \"#utility.yul\":2266:2299   */\n      tag_54\n      jump\t// in\n    tag_87:\n        /* \"#utility.yul\":2166:2305   */\n      swap3\n      swap2\n      pop\n      pop\n      jump\t// out\n        /* \"#utility.yul\":2311:2640   */\n    tag_18:\n        /* \"#utility.yul\":2370:2376   */\n      0x00\n        /* \"#utility.yul\":2419:2421   */\n      0x20\n        /* \"#utility.yul\":2407:2416   */\n      dup3\n        /* \"#utility.yul\":2398:2405   */\n      dup5\n        /* \"#utility.yul\":2394:2417   */\n      sub\n        /* \"#utility.yul\":2390:2422   */\n      slt\n        /* \"#utility.yul\":2387:2506   */\n      iszero\n      tag_89\n      jumpi\n        /* \"#utility.yul\":2425:2504   */\n      tag_90\n      tag_44\n      jump\t// in\n    tag_90:\n        /* \"#utility.yul\":2387:2506   */\n    tag_89:\n        /* \"#utility.yul\":2545:2546   */\n      0x00\n        /* \"#utility.yul\":2570:2623   */\n      tag_91\n        /* \"#utility.yul\":2615:2622   */\n      dup5\n        /* \"#utility.yul\":2606:2612   */\n      dup3\n        /* \"#utility.yul\":2595:2604   */\n      dup6\n        /* \"#utility.yul\":2591:2613   */\n      add\n        /* \"#utility.yul\":2570:2623   */\n      tag_55\n      jump\t// in\n    tag_91:\n        /* \"#utility.yul\":2560:2623   */\n      swap2\n      pop\n        /* \"#utility.yul\":2516:2633   */\n      pop\n        /* \"#utility.yul\":2311:2640   */\n      swap3\n      swap2\n      pop\n      pop\n      jump\t// out\n        /* \"#utility.yul\":2646:2826   */\n    tag_28:\n        /* \"#utility.yul\":2694:2771   */\n      0x4e487b7100000000000000000000000000000000000000000000000000000000\n        /* \"#utility.yul\":2691:2692   */\n      0x00\n        /* \"#utility.yul\":2684:2772   */\n      mstore\n        /* \"#utility.yul\":2791:2795   */\n      0x32\n        /* \"#utility.yul\":2788:2789   */\n      0x04\n        /* \"#utility.yul\":2781:2796   */\n      mstore\n        /* \"#utility.yul\":2815:2819   */\n      0x24\n        /* \"#utility.yul\":2812:2813   */\n      0x00\n        /* \"#utility.yul\":2805:2820   */\n      revert\n        /* \"#utility.yul\":2832:3012   */\n    tag_56:\n        /* \"#utility.yul\":2880:2957   */\n      0x4e487b7100000000000000000000000000000000000000000000000000000000\n        /* \"#utility.yul\":2877:2878   */\n      0x00\n        /* \"#utility.yul\":2870:2958   */\n      mstore\n        /* \"#utility.yul\":2977:2981   */\n      0x11\n        /* \"#utility.yul\":2974:2975   */\n      0x04\n        /* \"#utility.yul\":2967:2982   */\n      mstore\n        /* \"#utility.yul\":3001:3005   */\n      0x24\n        /* \"#utility.yul\":2998:2999   */\n      0x00\n        /* \"#utility.yul\":2991:3006   */\n      revert\n        /* \"#utility.yul\":3018:3251   */\n    tag_32:\n        /* \"#utility.yul\":3057:3060   */\n      0x00\n        /* \"#utility.yul\":3080:3104   */\n      tag_95\n        /* \"#utility.yul\":3098:3103   */\n      dup3\n        /* \"#utility.yul\":3080:3104   */\n      tag_46\n      jump\t// in\n    tag_95:\n        /* \"#utility.yul\":3071:3104   */\n      swap2\n      pop\n        /* \"#utility.yul\":3126:3192   */\n      0xffffffffffffffffffffffffffffffffffffffffffffffffffffffffffffffff\n        /* \"#utility.yul\":3119:3124   */\n      dup3\n        /* \"#utility.yul\":3116:3193   */\n      sub\n        /* \"#utility.yul\":3113:3216   */\n      tag_96\n      jumpi\n        /* \"#utility.yul\":3196:3214   */\n      tag_97\n      tag_56\n      jump\t// in\n    tag_97:\n        /* \"#utility.yul\":3113:3216   */\n    tag_96:\n        /* \"#utility.yul\":3243:3244   */\n      0x01\n        /* \"#utility.yul\":3236:3241   */\n      dup3\n        /* \"#utility.yul\":3232:3245   */\n      add\n        /* \"#utility.yul\":3225:3245   */\n      swap1\n      pop\n        /* \"#utility.yul\":3018:3251   */\n      swap2\n      swap1\n      pop\n      jump\t// out\n\n    auxdata: 0xa26469706673582212201b82b8e42d0ee4d5f13bcfb6beb2fc0245d1e1a753816a875665203dd561844764736f6c63430008100033\n}\n",
				"bytecode": {
					"linkReferences": {},
					"object": "608060405234801561001057600080fd5b506104b8806100206000396000f3fe608060405234801561001057600080fd5b50600436106100415760003560e01c80637f83b8ee14610046578063919840ad146100765780639b19251a14610094575b600080fd5b610060600480360381019061005b91906102c4565b6100b0565b60405161006d9190610332565b60405180910390f35b61007e6100ef565b60405161008b9190610368565b60405180910390f35b6100ae60048036038101906100a991906103af565b61018d565b005b600081815481106100c057600080fd5b906000526020600020016000915054906101000a900473ffffffffffffffffffffffffffffffffffffffff1681565b60008060009050600080549050811015610188573373ffffffffffffffffffffffffffffffffffffffff166000828154811061012e5761012d6103dc565b5b9060005260206000200160009054906101000a900473ffffffffffffffffffffffffffffffffffffffff1673ffffffffffffffffffffffffffffffffffffffff160361017e57600191505061018a565b600091505061018a565b505b90565b60005b600080549050811015610285573373ffffffffffffffffffffffffffffffffffffffff16600082815481106101c8576101c76103dc565b5b9060005260206000200160009054906101000a900473ffffffffffffffffffffffffffffffffffffffff1673ffffffffffffffffffffffffffffffffffffffff1614610272576000339080600181540180825580915050600190039060005260206000200160009091909190916101000a81548173ffffffffffffffffffffffffffffffffffffffff021916908373ffffffffffffffffffffffffffffffffffffffff1602179055505b808061027d9061043a565b915050610190565b5050565b600080fd5b6000819050919050565b6102a18161028e565b81146102ac57600080fd5b50565b6000813590506102be81610298565b92915050565b6000602082840312156102da576102d9610289565b5b60006102e8848285016102af565b91505092915050565b600073ffffffffffffffffffffffffffffffffffffffff82169050919050565b600061031c826102f1565b9050919050565b61032c81610311565b82525050565b60006020820190506103476000830184610323565b92915050565b60008115159050919050565b6103628161034d565b82525050565b600060208201905061037d6000830184610359565b92915050565b61038c81610311565b811461039757600080fd5b50565b6000813590506103a981610383565b92915050565b6000602082840312156103c5576103c4610289565b5b60006103d38482850161039a565b91505092915050565b7f4e487b7100000000000000000000000000000000000000000000000000000000600052603260045260246000fd5b7f4e487b7100000000000000000000000000000000000000000000000000000000600052601160045260246000fd5b60006104458261028e565b91507fffffffffffffffffffffffffffffffffffffffffffffffffffffffffffffffff82036104775761047661040b565b5b60018201905091905056fea26469706673582212201b82b8e42d0ee4d5f13bcfb6beb2fc0245d1e1a753816a875665203dd561844764736f6c63430008100033",
					"opcodes": "PUSH1 0x80 PUSH1 0x40 MSTORE CALLVALUE DUP1 ISZERO PUSH2 0x10 JUMPI PUSH1 0x0 DUP1 REVERT JUMPDEST POP PUSH2 0x4B8 DUP1 PUSH2 0x20 PUSH1 0x0 CODECOPY PUSH1 0x0 RETURN INVALID PUSH1 0x80 PUSH1 0x40 MSTORE CALLVALUE DUP1 ISZERO PUSH2 0x10 JUMPI PUSH1 0x0 DUP1 REVERT JUMPDEST POP PUSH1 0x4 CALLDATASIZE LT PUSH2 0x41 JUMPI PUSH1 0x0 CALLDATALOAD PUSH1 0xE0 SHR DUP1 PUSH4 0x7F83B8EE EQ PUSH2 0x46 JUMPI DUP1 PUSH4 0x919840AD EQ PUSH2 0x76 JUMPI DUP1 PUSH4 0x9B19251A EQ PUSH2 0x94 JUMPI JUMPDEST PUSH1 0x0 DUP1 REVERT JUMPDEST PUSH2 0x60 PUSH1 0x4 DUP1 CALLDATASIZE SUB DUP2 ADD SWAP1 PUSH2 0x5B SWAP2 SWAP1 PUSH2 0x2C4 JUMP JUMPDEST PUSH2 0xB0 JUMP JUMPDEST PUSH1 0x40 MLOAD PUSH2 0x6D SWAP2 SWAP1 PUSH2 0x332 JUMP JUMPDEST PUSH1 0x40 MLOAD DUP1 SWAP2 SUB SWAP1 RETURN JUMPDEST PUSH2 0x7E PUSH2 0xEF JUMP JUMPDEST PUSH1 0x40 MLOAD PUSH2 0x8B SWAP2 SWAP1 PUSH2 0x368 JUMP JUMPDEST PUSH1 0x40 MLOAD DUP1 SWAP2 SUB SWAP1 RETURN JUMPDEST PUSH2 0xAE PUSH1 0x4 DUP1 CALLDATASIZE SUB DUP2 ADD SWAP1 PUSH2 0xA9 SWAP2 SWAP1 PUSH2 0x3AF JUMP JUMPDEST PUSH2 0x18D JUMP JUMPDEST STOP JUMPDEST PUSH1 0x0 DUP2 DUP2 SLOAD DUP2 LT PUSH2 0xC0 JUMPI PUSH1 0x0 DUP1 REVERT JUMPDEST SWAP1 PUSH1 0x0 MSTORE PUSH1 0x20 PUSH1 0x0 KECCAK256 ADD PUSH1 0x0 SWAP2 POP SLOAD SWAP1 PUSH2 0x100 EXP SWAP1 DIV PUSH20 0xFFFFFFFFFFFFFFFFFFFFFFFFFFFFFFFFFFFFFFFF AND DUP2 JUMP JUMPDEST PUSH1 0x0 DUP1 PUSH1 0x0 SWAP1 POP PUSH1 0x0 DUP1 SLOAD SWAP1 POP DUP2 LT ISZERO PUSH2 0x188 JUMPI CALLER PUSH20 0xFFFFFFFFFFFFFFFFFFFFFFFFFFFFFFFFFFFFFFFF AND PUSH1 0x0 DUP3 DUP2 SLOAD DUP2 LT PUSH2 0x12E JUMPI PUSH2 0x12D PUSH2 0x3DC JUMP JUMPDEST JUMPDEST SWAP1 PUSH1 0x0 MSTORE PUSH1 0x20 PUSH1 0x0 KECCAK256 ADD PUSH1 0x0 SWAP1 SLOAD SWAP1 PUSH2 0x100 EXP SWAP1 DIV PUSH20 0xFFFFFFFFFFFFFFFFFFFFFFFFFFFFFFFFFFFFFFFF AND PUSH20 0xFFFFFFFFFFFFFFFFFFFFFFFFFFFFFFFFFFFFFFFF AND SUB PUSH2 0x17E JUMPI PUSH1 0x1 SWAP2 POP POP PUSH2 0x18A JUMP JUMPDEST PUSH1 0x0 SWAP2 POP POP PUSH2 0x18A JUMP JUMPDEST POP JUMPDEST SWAP1 JUMP JUMPDEST PUSH1 0x0 JUMPDEST PUSH1 0x0 DUP1 SLOAD SWAP1 POP DUP2 LT ISZERO PUSH2 0x285 JUMPI CALLER PUSH20 0xFFFFFFFFFFFFFFFFFFFFFFFFFFFFFFFFFFFFFFFF AND PUSH1 0x0 DUP3 DUP2 SLOAD DUP2 LT PUSH2 0x1C8 JUMPI PUSH2 0x1C7 PUSH2 0x3DC JUMP JUMPDEST JUMPDEST SWAP1 PUSH1 0x0 MSTORE PUSH1 0x20 PUSH1 0x0 KECCAK256 ADD PUSH1 0x0 SWAP1 SLOAD SWAP1 PUSH2 0x100 EXP SWAP1 DIV PUSH20 0xFFFFFFFFFFFFFFFFFFFFFFFFFFFFFFFFFFFFFFFF AND PUSH20 0xFFFFFFFFFFFFFFFFFFFFFFFFFFFFFFFFFFFFFFFF AND EQ PUSH2 0x272 JUMPI PUSH1 0x0 CALLER SWAP1 DUP1 PUSH1 0x1 DUP2 SLOAD ADD DUP1 DUP3 SSTORE DUP1 SWAP2 POP POP PUSH1 0x1 SWAP1 SUB SWAP1 PUSH1 0x0 MSTORE PUSH1 0x20 PUSH1 0x0 KECCAK256 ADD PUSH1 0x0 SWAP1 SWAP2 SWAP1 SWAP2 SWAP1 SWAP2 PUSH2 0x100 EXP DUP2 SLOAD DUP2 PUSH20 0xFFFFFFFFFFFFFFFFFFFFFFFFFFFFFFFFFFFFFFFF MUL NOT AND SWAP1 DUP4 PUSH20 0xFFFFFFFFFFFFFFFFFFFFFFFFFFFFFFFFFFFFFFFF AND MUL OR SWAP1 SSTORE POP JUMPDEST DUP1 DUP1 PUSH2 0x27D SWAP1 PUSH2 0x43A JUMP JUMPDEST SWAP2 POP POP PUSH2 0x190 JUMP JUMPDEST POP POP JUMP JUMPDEST PUSH1 0x0 DUP1 REVERT JUMPDEST PUSH1 0x0 DUP2 SWAP1 POP SWAP2 SWAP1 POP JUMP JUMPDEST PUSH2 0x2A1 DUP2 PUSH2 0x28E JUMP JUMPDEST DUP2 EQ PUSH2 0x2AC JUMPI PUSH1 0x0 DUP1 REVERT JUMPDEST POP JUMP JUMPDEST PUSH1 0x0 DUP2 CALLDATALOAD SWAP1 POP PUSH2 0x2BE DUP2 PUSH2 0x298 JUMP JUMPDEST SWAP3 SWAP2 POP POP JUMP JUMPDEST PUSH1 0x0 PUSH1 0x20 DUP3 DUP5 SUB SLT ISZERO PUSH2 0x2DA JUMPI PUSH2 0x2D9 PUSH2 0x289 JUMP JUMPDEST JUMPDEST PUSH1 0x0 PUSH2 0x2E8 DUP5 DUP3 DUP6 ADD PUSH2 0x2AF JUMP JUMPDEST SWAP2 POP POP SWAP3 SWAP2 POP POP JUMP JUMPDEST PUSH1 0x0 PUSH20 0xFFFFFFFFFFFFFFFFFFFFFFFFFFFFFFFFFFFFFFFF DUP3 AND SWAP1 POP SWAP2 SWAP1 POP JUMP JUMPDEST PUSH1 0x0 PUSH2 0x31C DUP3 PUSH2 0x2F1 JUMP JUMPDEST SWAP1 POP SWAP2 SWAP1 POP JUMP JUMPDEST PUSH2 0x32C DUP2 PUSH2 0x311 JUMP JUMPDEST DUP3 MSTORE POP POP JUMP JUMPDEST PUSH1 0x0 PUSH1 0x20 DUP3 ADD SWAP1 POP PUSH2 0x347 PUSH1 0x0 DUP4 ADD DUP5 PUSH2 0x323 JUMP JUMPDEST SWAP3 SWAP2 POP POP JUMP JUMPDEST PUSH1 0x0 DUP2 ISZERO ISZERO SWAP1 POP SWAP2 SWAP1 POP JUMP JUMPDEST PUSH2 0x362 DUP2 PUSH2 0x34D JUMP JUMPDEST DUP3 MSTORE POP POP JUMP JUMPDEST PUSH1 0x0 PUSH1 0x20 DUP3 ADD SWAP1 POP PUSH2 0x37D PUSH1 0x0 DUP4 ADD DUP5 PUSH2 0x359 JUMP JUMPDEST SWAP3 SWAP2 POP POP JUMP JUMPDEST PUSH2 0x38C DUP2 PUSH2 0x311 JUMP JUMPDEST DUP2 EQ PUSH2 0x397 JUMPI PUSH1 0x0 DUP1 REVERT JUMPDEST POP JUMP JUMPDEST PUSH1 0x0 DUP2 CALLDATALOAD SWAP1 POP PUSH2 0x3A9 DUP2 PUSH2 0x383 JUMP JUMPDEST SWAP3 SWAP2 POP POP JUMP JUMPDEST PUSH1 0x0 PUSH1 0x20 DUP3 DUP5 SUB SLT ISZERO PUSH2 0x3C5 JUMPI PUSH2 0x3C4 PUSH2 0x289 JUMP JUMPDEST JUMPDEST PUSH1 0x0 PUSH2 0x3D3 DUP5 DUP3 DUP6 ADD PUSH2 0x39A JUMP JUMPDEST SWAP2 POP POP SWAP3 SWAP2 POP POP JUMP JUMPDEST PUSH32 0x4E487B7100000000000000000000000000000000000000000000000000000000 PUSH1 0x0 MSTORE PUSH1 0x32 PUSH1 0x4 MSTORE PUSH1 0x24 PUSH1 0x0 REVERT JUMPDEST PUSH32 0x4E487B7100000000000000000000000000000000000000000000000000000000 PUSH1 0x0 MSTORE PUSH1 0x11 PUSH1 0x4 MSTORE PUSH1 0x24 PUSH1 0x0 REVERT JUMPDEST PUSH1 0x0 PUSH2 0x445 DUP3 PUSH2 0x28E JUMP JUMPDEST SWAP2 POP PUSH32 0xFFFFFFFFFFFFFFFFFFFFFFFFFFFFFFFFFFFFFFFFFFFFFFFFFFFFFFFFFFFFFFFF DUP3 SUB PUSH2 0x477 JUMPI PUSH2 0x476 PUSH2 0x40B JUMP JUMPDEST JUMPDEST PUSH1 0x1 DUP3 ADD SWAP1 POP SWAP2 SWAP1 POP JUMP INVALID LOG2 PUSH5 0x6970667358 0x22 SLT KECCAK256 SHL DUP3 0xB8 0xE4 0x2D 0xE 0xE4 0xD5 CALL EXTCODESIZE 0xCF 0xB6 0xBE 0xB2 0xFC MUL GASLIMIT 0xD1 0xE1 0xA7 MSTORE8 DUP2 PUSH11 0x875665203DD56184476473 PUSH16 0x6C634300081000330000000000000000 "
				},
				"gasEstimates": {
					"creation": {
						"codeDepositCost": "241600",
						"executionCost": "281",
						"totalCost": "241881"
					},
					"external": {
						"arrayWhitelist(uint256)": "4934",
						"check()": "6851",
						"whitelist(address)": "infinite"
					}
				},
				"methodIdentifiers": {
					"arrayWhitelist(uint256)": "7f83b8ee",
					"check()": "919840ad",
					"whitelist(address)": "9b19251a"
				}
			},
			"storageLayout": {
				"storage": [
					{
						"astId": 4,
						"contract": "STD1/SelfWhiteList/SelfWhiteList.sol:SelfWhiteList",
						"label": "arrayWhitelist",
						"offset": 0,
						"slot": "0",
						"type": "t_array(t_address)dyn_storage"
					}
				],
				"types": {
					"t_address": {
						"encoding": "inplace",
						"label": "address",
						"numberOfBytes": "20"
					},
					"t_array(t_address)dyn_storage": {
						"base": "t_address",
						"encoding": "dynamic_array",
						"label": "address[]",
						"numberOfBytes": "32"
					}
				}
			},
			"userdoc": {
				"kind": "user",
				"methods": {},
				"version": 1
			}
		}
	}
}