{
	"STD1/AllPrimeNumber/AllPrimeNumber.sol": {
		"ALLPrimeNumber": {
			"abi": [
				{
					"inputs": [
						{
							"internalType": "uint256",
							"name": "nbr",
							"type": "uint256"
						}
					],
					"name": "addPrime",
					"outputs": [
						{
							"internalType": "bool",
							"name": "",
							"type": "bool"
						}
					],
					"stateMutability": "nonpayable",
					"type": "function"
				},
				{
					"inputs": [],
					"name": "getPrime",
					"outputs": [
						{
							"internalType": "uint256",
							"name": "nbr",
							"type": "uint256"
						}
					],
					"stateMutability": "view",
					"type": "function"
				}
			],
			"devdoc": {
				"kind": "dev",
				"methods": {},
				"version": 1
			},
			"evm": {
				"assembly": "    /* \"STD1/AllPrimeNumber/AllPrimeNumber.sol\":58:632  contract ALLPrimeNumber{... */\n  mstore(0x40, 0x80)\n  callvalue\n  dup1\n  iszero\n  tag_1\n  jumpi\n  0x00\n  dup1\n  revert\ntag_1:\n  pop\n  dataSize(sub_0)\n  dup1\n  dataOffset(sub_0)\n  0x00\n  codecopy\n  0x00\n  return\nstop\n\nsub_0: assembly {\n        /* \"STD1/AllPrimeNumber/AllPrimeNumber.sol\":58:632  contract ALLPrimeNumber{... */\n      mstore(0x40, 0x80)\n      callvalue\n      dup1\n      iszero\n      tag_1\n      jumpi\n      0x00\n      dup1\n      revert\n    tag_1:\n      pop\n      jumpi(tag_2, lt(calldatasize, 0x04))\n      shr(0xe0, calldataload(0x00))\n      dup1\n      0x725b3fdd\n      eq\n      tag_3\n      jumpi\n      dup1\n      0xc90ce464\n      eq\n      tag_4\n      jumpi\n    tag_2:\n      0x00\n      dup1\n      revert\n        /* \"STD1/AllPrimeNumber/AllPrimeNumber.sol\":111:385  function addPrime(uint nbr) public returns (bool){... */\n    tag_3:\n      tag_5\n      0x04\n      dup1\n      calldatasize\n      sub\n      dup2\n      add\n      swap1\n      tag_6\n      swap2\n      swap1\n      tag_7\n      jump\t// in\n    tag_6:\n      tag_8\n      jump\t// in\n    tag_5:\n      mload(0x40)\n      tag_9\n      swap2\n      swap1\n      tag_10\n      jump\t// in\n    tag_9:\n      mload(0x40)\n      dup1\n      swap2\n      sub\n      swap1\n      return\n        /* \"STD1/AllPrimeNumber/AllPrimeNumber.sol\":391:629  function getPrime() public view returns(uint nbr){... */\n    tag_4:\n      tag_11\n      tag_12\n      jump\t// in\n    tag_11:\n      mload(0x40)\n      tag_13\n      swap2\n      swap1\n      tag_14\n      jump\t// in\n    tag_13:\n      mload(0x40)\n      dup1\n      swap2\n      sub\n      swap1\n      return\n        /* \"STD1/AllPrimeNumber/AllPrimeNumber.sol\":111:385  function addPrime(uint nbr) public returns (bool){... */\n    tag_8:\n        /* \"STD1/AllPrimeNumber/AllPrimeNumber.sol\":155:159  bool */\n      0x00\n        /* \"STD1/AllPrimeNumber/AllPrimeNumber.sol\":180:181  1 */\n      0x01\n        /* \"STD1/AllPrimeNumber/AllPrimeNumber.sol\":173:176  nbr */\n      dup3\n        /* \"STD1/AllPrimeNumber/AllPrimeNumber.sol\":173:181  nbr == 1 */\n      sub\n        /* \"STD1/AllPrimeNumber/AllPrimeNumber.sol\":170:203  if(nbr == 1)... */\n      tag_16\n      jumpi\n        /* \"STD1/AllPrimeNumber/AllPrimeNumber.sol\":198:203  false */\n      0x00\n        /* \"STD1/AllPrimeNumber/AllPrimeNumber.sol\":191:203  return false */\n      swap1\n      pop\n      jump(tag_15)\n        /* \"STD1/AllPrimeNumber/AllPrimeNumber.sol\":170:203  if(nbr == 1)... */\n    tag_16:\n        /* \"STD1/AllPrimeNumber/AllPrimeNumber.sol\":218:224  uint i */\n      0x00\n        /* \"STD1/AllPrimeNumber/AllPrimeNumber.sol\":227:228  2 */\n      0x02\n        /* \"STD1/AllPrimeNumber/AllPrimeNumber.sol\":218:228  uint i = 2 */\n      swap1\n      pop\n        /* \"STD1/AllPrimeNumber/AllPrimeNumber.sol\":214:328  for(uint i = 2; i < nbr; i++){... */\n    tag_17:\n        /* \"STD1/AllPrimeNumber/AllPrimeNumber.sol\":234:237  nbr */\n      dup3\n        /* \"STD1/AllPrimeNumber/AllPrimeNumber.sol\":230:231  i */\n      dup2\n        /* \"STD1/AllPrimeNumber/AllPrimeNumber.sol\":230:237  i < nbr */\n      lt\n        /* \"STD1/AllPrimeNumber/AllPrimeNumber.sol\":214:328  for(uint i = 2; i < nbr; i++){... */\n      iszero\n      tag_18\n      jumpi\n        /* \"STD1/AllPrimeNumber/AllPrimeNumber.sol\":271:272  0 */\n      0x00\n        /* \"STD1/AllPrimeNumber/AllPrimeNumber.sol\":264:267  nbr */\n      dup4\n        /* \"STD1/AllPrimeNumber/AllPrimeNumber.sol\":260:261  i */\n      dup3\n        /* \"STD1/AllPrimeNumber/AllPrimeNumber.sol\":260:267  i % nbr */\n      tag_20\n      swap2\n      swap1\n      tag_21\n      jump\t// in\n    tag_20:\n        /* \"STD1/AllPrimeNumber/AllPrimeNumber.sol\":260:272  i % nbr == 0 */\n      sub\n        /* \"STD1/AllPrimeNumber/AllPrimeNumber.sol\":257:318  if(i % nbr == 0){... */\n      tag_22\n      jumpi\n        /* \"STD1/AllPrimeNumber/AllPrimeNumber.sol\":298:303  false */\n      0x00\n        /* \"STD1/AllPrimeNumber/AllPrimeNumber.sol\":291:303  return false */\n      swap2\n      pop\n      pop\n      jump(tag_15)\n        /* \"STD1/AllPrimeNumber/AllPrimeNumber.sol\":257:318  if(i % nbr == 0){... */\n    tag_22:\n        /* \"STD1/AllPrimeNumber/AllPrimeNumber.sol\":239:242  i++ */\n      dup1\n      dup1\n      tag_23\n      swap1\n      tag_24\n      jump\t// in\n    tag_23:\n      swap2\n      pop\n      pop\n        /* \"STD1/AllPrimeNumber/AllPrimeNumber.sol\":214:328  for(uint i = 2; i < nbr; i++){... */\n      jump(tag_17)\n    tag_18:\n      pop\n        /* \"STD1/AllPrimeNumber/AllPrimeNumber.sol\":337:347  arrayPrime */\n      0x00\n        /* \"STD1/AllPrimeNumber/AllPrimeNumber.sol\":353:356  nbr */\n      dup3\n        /* \"STD1/AllPrimeNumber/AllPrimeNumber.sol\":337:357  arrayPrime.push(nbr) */\n      swap1\n      dup1\n      0x01\n      dup2\n      sload\n      add\n      dup1\n      dup3\n      sstore\n      dup1\n      swap2\n      pop\n      pop\n      0x01\n      swap1\n      sub\n      swap1\n      0x00\n      mstore\n      keccak256(0x00, 0x20)\n      add\n      0x00\n      swap1\n      swap2\n      swap1\n      swap2\n      swap1\n      swap2\n      pop\n      sstore\n        /* \"STD1/AllPrimeNumber/AllPrimeNumber.sol\":374:378  true */\n      0x01\n        /* \"STD1/AllPrimeNumber/AllPrimeNumber.sol\":367:378  return true */\n      swap1\n      pop\n        /* \"STD1/AllPrimeNumber/AllPrimeNumber.sol\":111:385  function addPrime(uint nbr) public returns (bool){... */\n    tag_15:\n      swap2\n      swap1\n      pop\n      jump\t// out\n        /* \"STD1/AllPrimeNumber/AllPrimeNumber.sol\":391:629  function getPrime() public view returns(uint nbr){... */\n    tag_12:\n        /* \"STD1/AllPrimeNumber/AllPrimeNumber.sol\":431:439  uint nbr */\n      0x00\n        /* \"STD1/AllPrimeNumber/AllPrimeNumber.sol\":454:460  uint i */\n      dup1\n        /* \"STD1/AllPrimeNumber/AllPrimeNumber.sol\":463:464  0 */\n      0x00\n        /* \"STD1/AllPrimeNumber/AllPrimeNumber.sol\":454:464  uint i = 0 */\n      swap1\n      pop\n        /* \"STD1/AllPrimeNumber/AllPrimeNumber.sol\":450:517  for(uint i = 0; i < arrayPrime.length; i++){... */\n    tag_27:\n        /* \"STD1/AllPrimeNumber/AllPrimeNumber.sol\":470:480  arrayPrime */\n      0x00\n        /* \"STD1/AllPrimeNumber/AllPrimeNumber.sol\":470:487  arrayPrime.length */\n      dup1\n      sload\n      swap1\n      pop\n        /* \"STD1/AllPrimeNumber/AllPrimeNumber.sol\":466:467  i */\n      dup2\n        /* \"STD1/AllPrimeNumber/AllPrimeNumber.sol\":466:487  i < arrayPrime.length */\n      lt\n        /* \"STD1/AllPrimeNumber/AllPrimeNumber.sol\":450:517  for(uint i = 0; i < arrayPrime.length; i++){... */\n      iszero\n      tag_28\n      jumpi\n        /* \"STD1/AllPrimeNumber/AllPrimeNumber.sol\":489:492  i++ */\n      dup1\n      dup1\n      tag_30\n      swap1\n      tag_24\n      jump\t// in\n    tag_30:\n      swap2\n      pop\n      pop\n        /* \"STD1/AllPrimeNumber/AllPrimeNumber.sol\":450:517  for(uint i = 0; i < arrayPrime.length; i++){... */\n      jump(tag_27)\n    tag_28:\n      pop\n        /* \"STD1/AllPrimeNumber/AllPrimeNumber.sol\":391:629  function getPrime() public view returns(uint nbr){... */\n      swap1\n      jump\t// out\n        /* \"#utility.yul\":88:205   */\n    tag_32:\n        /* \"#utility.yul\":197:198   */\n      0x00\n        /* \"#utility.yul\":194:195   */\n      dup1\n        /* \"#utility.yul\":187:199   */\n      revert\n        /* \"#utility.yul\":334:411   */\n    tag_34:\n        /* \"#utility.yul\":371:378   */\n      0x00\n        /* \"#utility.yul\":400:405   */\n      dup2\n        /* \"#utility.yul\":389:405   */\n      swap1\n      pop\n        /* \"#utility.yul\":334:411   */\n      swap2\n      swap1\n      pop\n      jump\t// out\n        /* \"#utility.yul\":417:539   */\n    tag_35:\n        /* \"#utility.yul\":490:514   */\n      tag_48\n        /* \"#utility.yul\":508:513   */\n      dup2\n        /* \"#utility.yul\":490:514   */\n      tag_34\n      jump\t// in\n    tag_48:\n        /* \"#utility.yul\":483:488   */\n      dup2\n        /* \"#utility.yul\":480:515   */\n      eq\n        /* \"#utility.yul\":470:533   */\n      tag_49\n      jumpi\n        /* \"#utility.yul\":529:530   */\n      0x00\n        /* \"#utility.yul\":526:527   */\n      dup1\n        /* \"#utility.yul\":519:531   */\n      revert\n        /* \"#utility.yul\":470:533   */\n    tag_49:\n        /* \"#utility.yul\":417:539   */\n      pop\n      jump\t// out\n        /* \"#utility.yul\":545:684   */\n    tag_36:\n        /* \"#utility.yul\":591:596   */\n      0x00\n        /* \"#utility.yul\":629:635   */\n      dup2\n        /* \"#utility.yul\":616:636   */\n      calldataload\n        /* \"#utility.yul\":607:636   */\n      swap1\n      pop\n        /* \"#utility.yul\":645:678   */\n      tag_51\n        /* \"#utility.yul\":672:677   */\n      dup2\n        /* \"#utility.yul\":645:678   */\n      tag_35\n      jump\t// in\n    tag_51:\n        /* \"#utility.yul\":545:684   */\n      swap3\n      swap2\n      pop\n      pop\n      jump\t// out\n        /* \"#utility.yul\":690:1019   */\n    tag_7:\n        /* \"#utility.yul\":749:755   */\n      0x00\n        /* \"#utility.yul\":798:800   */\n      0x20\n        /* \"#utility.yul\":786:795   */\n      dup3\n        /* \"#utility.yul\":777:784   */\n      dup5\n        /* \"#utility.yul\":773:796   */\n      sub\n        /* \"#utility.yul\":769:801   */\n      slt\n        /* \"#utility.yul\":766:885   */\n      iszero\n      tag_53\n      jumpi\n        /* \"#utility.yul\":804:883   */\n      tag_54\n      tag_32\n      jump\t// in\n    tag_54:\n        /* \"#utility.yul\":766:885   */\n    tag_53:\n        /* \"#utility.yul\":924:925   */\n      0x00\n        /* \"#utility.yul\":949:1002   */\n      tag_55\n        /* \"#utility.yul\":994:1001   */\n      dup5\n        /* \"#utility.yul\":985:991   */\n      dup3\n        /* \"#utility.yul\":974:983   */\n      dup6\n        /* \"#utility.yul\":970:992   */\n      add\n        /* \"#utility.yul\":949:1002   */\n      tag_36\n      jump\t// in\n    tag_55:\n        /* \"#utility.yul\":939:1002   */\n      swap2\n      pop\n        /* \"#utility.yul\":895:1012   */\n      pop\n        /* \"#utility.yul\":690:1019   */\n      swap3\n      swap2\n      pop\n      pop\n      jump\t// out\n        /* \"#utility.yul\":1025:1115   */\n    tag_37:\n        /* \"#utility.yul\":1059:1066   */\n      0x00\n        /* \"#utility.yul\":1102:1107   */\n      dup2\n        /* \"#utility.yul\":1095:1108   */\n      iszero\n        /* \"#utility.yul\":1088:1109   */\n      iszero\n        /* \"#utility.yul\":1077:1109   */\n      swap1\n      pop\n        /* \"#utility.yul\":1025:1115   */\n      swap2\n      swap1\n      pop\n      jump\t// out\n        /* \"#utility.yul\":1121:1230   */\n    tag_38:\n        /* \"#utility.yul\":1202:1223   */\n      tag_58\n        /* \"#utility.yul\":1217:1222   */\n      dup2\n        /* \"#utility.yul\":1202:1223   */\n      tag_37\n      jump\t// in\n    tag_58:\n        /* \"#utility.yul\":1197:1200   */\n      dup3\n        /* \"#utility.yul\":1190:1224   */\n      mstore\n        /* \"#utility.yul\":1121:1230   */\n      pop\n      pop\n      jump\t// out\n        /* \"#utility.yul\":1236:1446   */\n    tag_10:\n        /* \"#utility.yul\":1323:1327   */\n      0x00\n        /* \"#utility.yul\":1361:1363   */\n      0x20\n        /* \"#utility.yul\":1350:1359   */\n      dup3\n        /* \"#utility.yul\":1346:1364   */\n      add\n        /* \"#utility.yul\":1338:1364   */\n      swap1\n      pop\n        /* \"#utility.yul\":1374:1439   */\n      tag_60\n        /* \"#utility.yul\":1436:1437   */\n      0x00\n        /* \"#utility.yul\":1425:1434   */\n      dup4\n        /* \"#utility.yul\":1421:1438   */\n      add\n        /* \"#utility.yul\":1412:1418   */\n      dup5\n        /* \"#utility.yul\":1374:1439   */\n      tag_38\n      jump\t// in\n    tag_60:\n        /* \"#utility.yul\":1236:1446   */\n      swap3\n      swap2\n      pop\n      pop\n      jump\t// out\n        /* \"#utility.yul\":1452:1570   */\n    tag_39:\n        /* \"#utility.yul\":1539:1563   */\n      tag_62\n        /* \"#utility.yul\":1557:1562   */\n      dup2\n        /* \"#utility.yul\":1539:1563   */\n      tag_34\n      jump\t// in\n    tag_62:\n        /* \"#utility.yul\":1534:1537   */\n      dup3\n        /* \"#utility.yul\":1527:1564   */\n      mstore\n        /* \"#utility.yul\":1452:1570   */\n      pop\n      pop\n      jump\t// out\n        /* \"#utility.yul\":1576:1798   */\n    tag_14:\n        /* \"#utility.yul\":1669:1673   */\n      0x00\n        /* \"#utility.yul\":1707:1709   */\n      0x20\n        /* \"#utility.yul\":1696:1705   */\n      dup3\n        /* \"#utility.yul\":1692:1710   */\n      add\n        /* \"#utility.yul\":1684:1710   */\n      swap1\n      pop\n        /* \"#utility.yul\":1720:1791   */\n      tag_64\n        /* \"#utility.yul\":1788:1789   */\n      0x00\n        /* \"#utility.yul\":1777:1786   */\n      dup4\n        /* \"#utility.yul\":1773:1790   */\n      add\n        /* \"#utility.yul\":1764:1770   */\n      dup5\n        /* \"#utility.yul\":1720:1791   */\n      tag_39\n      jump\t// in\n    tag_64:\n        /* \"#utility.yul\":1576:1798   */\n      swap3\n      swap2\n      pop\n      pop\n      jump\t// out\n        /* \"#utility.yul\":1804:1984   */\n    tag_40:\n        /* \"#utility.yul\":1852:1929   */\n      0x4e487b7100000000000000000000000000000000000000000000000000000000\n        /* \"#utility.yul\":1849:1850   */\n      0x00\n        /* \"#utility.yul\":1842:1930   */\n      mstore\n        /* \"#utility.yul\":1949:1953   */\n      0x12\n        /* \"#utility.yul\":1946:1947   */\n      0x04\n        /* \"#utility.yul\":1939:1954   */\n      mstore\n        /* \"#utility.yul\":1973:1977   */\n      0x24\n        /* \"#utility.yul\":1970:1971   */\n      0x00\n        /* \"#utility.yul\":1963:1978   */\n      revert\n        /* \"#utility.yul\":1990:2166   */\n    tag_21:\n        /* \"#utility.yul\":2022:2023   */\n      0x00\n        /* \"#utility.yul\":2039:2059   */\n      tag_67\n        /* \"#utility.yul\":2057:2058   */\n      dup3\n        /* \"#utility.yul\":2039:2059   */\n      tag_34\n      jump\t// in\n    tag_67:\n        /* \"#utility.yul\":2034:2059   */\n      swap2\n      pop\n        /* \"#utility.yul\":2073:2093   */\n      tag_68\n        /* \"#utility.yul\":2091:2092   */\n      dup4\n        /* \"#utility.yul\":2073:2093   */\n      tag_34\n      jump\t// in\n    tag_68:\n        /* \"#utility.yul\":2068:2093   */\n      swap3\n      pop\n        /* \"#utility.yul\":2112:2113   */\n      dup3\n        /* \"#utility.yul\":2102:2137   */\n      tag_69\n      jumpi\n        /* \"#utility.yul\":2117:2135   */\n      tag_70\n      tag_40\n      jump\t// in\n    tag_70:\n        /* \"#utility.yul\":2102:2137   */\n    tag_69:\n        /* \"#utility.yul\":2158:2159   */\n      dup3\n        /* \"#utility.yul\":2155:2156   */\n      dup3\n        /* \"#utility.yul\":2151:2160   */\n      mod\n        /* \"#utility.yul\":2146:2160   */\n      swap1\n      pop\n        /* \"#utility.yul\":1990:2166   */\n      swap3\n      swap2\n      pop\n      pop\n      jump\t// out\n        /* \"#utility.yul\":2172:2352   */\n    tag_41:\n        /* \"#utility.yul\":2220:2297   */\n      0x4e487b7100000000000000000000000000000000000000000000000000000000\n        /* \"#utility.yul\":2217:2218   */\n      0x00\n        /* \"#utility.yul\":2210:2298   */\n      mstore\n        /* \"#utility.yul\":2317:2321   */\n      0x11\n        /* \"#utility.yul\":2314:2315   */\n      0x04\n        /* \"#utility.yul\":2307:2322   */\n      mstore\n        /* \"#utility.yul\":2341:2345   */\n      0x24\n        /* \"#utility.yul\":2338:2339   */\n      0x00\n        /* \"#utility.yul\":2331:2346   */\n      revert\n        /* \"#utility.yul\":2358:2591   */\n    tag_24:\n        /* \"#utility.yul\":2397:2400   */\n      0x00\n        /* \"#utility.yul\":2420:2444   */\n      tag_73\n        /* \"#utility.yul\":2438:2443   */\n      dup3\n        /* \"#utility.yul\":2420:2444   */\n      tag_34\n      jump\t// in\n    tag_73:\n        /* \"#utility.yul\":2411:2444   */\n      swap2\n      pop\n        /* \"#utility.yul\":2466:2532   */\n      0xffffffffffffffffffffffffffffffffffffffffffffffffffffffffffffffff\n        /* \"#utility.yul\":2459:2464   */\n      dup3\n        /* \"#utility.yul\":2456:2533   */\n      sub\n        /* \"#utility.yul\":2453:2556   */\n      tag_74\n      jumpi\n        /* \"#utility.yul\":2536:2554   */\n      tag_75\n      tag_41\n      jump\t// in\n    tag_75:\n        /* \"#utility.yul\":2453:2556   */\n    tag_74:\n        /* \"#utility.yul\":2583:2584   */\n      0x01\n        /* \"#utility.yul\":2576:2581   */\n      dup3\n        /* \"#utility.yul\":2572:2585   */\n      add\n        /* \"#utility.yul\":2565:2585   */\n      swap1\n      pop\n        /* \"#utility.yul\":2358:2591   */\n      swap2\n      swap1\n      pop\n      jump\t// out\n\n    auxdata: 0xa2646970667358221220a6922ddd4c1d87002da97838aa803cda1fd8567b471d83812abc08e21540213464736f6c63430008100033\n}\n",
				"bytecode": {
					"linkReferences": {},
					"object": "608060405234801561001057600080fd5b50610310806100206000396000f3fe608060405234801561001057600080fd5b50600436106100365760003560e01c8063725b3fdd1461003b578063c90ce4641461006b575b600080fd5b61005560048036038101906100509190610176565b610089565b60405161006291906101be565b60405180910390f35b61007361010f565b60405161008091906101e8565b60405180910390f35b60006001820361009c576000905061010a565b6000600290505b828110156100db57600083826100b99190610232565b036100c857600091505061010a565b80806100d390610292565b9150506100a3565b506000829080600181540180825580915050600190039060005260206000200160009091909190915055600190505b919050565b600080600090505b60008054905081101561013757808061012f90610292565b915050610117565b5090565b600080fd5b6000819050919050565b61015381610140565b811461015e57600080fd5b50565b6000813590506101708161014a565b92915050565b60006020828403121561018c5761018b61013b565b5b600061019a84828501610161565b91505092915050565b60008115159050919050565b6101b8816101a3565b82525050565b60006020820190506101d360008301846101af565b92915050565b6101e281610140565b82525050565b60006020820190506101fd60008301846101d9565b92915050565b7f4e487b7100000000000000000000000000000000000000000000000000000000600052601260045260246000fd5b600061023d82610140565b915061024883610140565b92508261025857610257610203565b5b828206905092915050565b7f4e487b7100000000000000000000000000000000000000000000000000000000600052601160045260246000fd5b600061029d82610140565b91507fffffffffffffffffffffffffffffffffffffffffffffffffffffffffffffffff82036102cf576102ce610263565b5b60018201905091905056fea2646970667358221220a6922ddd4c1d87002da97838aa803cda1fd8567b471d83812abc08e21540213464736f6c63430008100033",
					"opcodes": "PUSH1 0x80 PUSH1 0x40 MSTORE CALLVALUE DUP1 ISZERO PUSH2 0x10 JUMPI PUSH1 0x0 DUP1 REVERT JUMPDEST POP PUSH2 0x310 DUP1 PUSH2 0x20 PUSH1 0x0 CODECOPY PUSH1 0x0 RETURN INVALID PUSH1 0x80 PUSH1 0x40 MSTORE CALLVALUE DUP1 ISZERO PUSH2 0x10 JUMPI PUSH1 0x0 DUP1 REVERT JUMPDEST POP PUSH1 0x4 CALLDATASIZE LT PUSH2 0x36 JUMPI PUSH1 0x0 CALLDATALOAD PUSH1 0xE0 SHR DUP1 PUSH4 0x725B3FDD EQ PUSH2 0x3B JUMPI DUP1 PUSH4 0xC90CE464 EQ PUSH2 0x6B JUMPI JUMPDEST PUSH1 0x0 DUP1 REVERT JUMPDEST PUSH2 0x55 PUSH1 0x4 DUP1 CALLDATASIZE SUB DUP2 ADD SWAP1 PUSH2 0x50 SWAP2 SWAP1 PUSH2 0x176 JUMP JUMPDEST PUSH2 0x89 JUMP JUMPDEST PUSH1 0x40 MLOAD PUSH2 0x62 SWAP2 SWAP1 PUSH2 0x1BE JUMP JUMPDEST PUSH1 0x40 MLOAD DUP1 SWAP2 SUB SWAP1 RETURN JUMPDEST PUSH2 0x73 PUSH2 0x10F JUMP JUMPDEST PUSH1 0x40 MLOAD PUSH2 0x80 SWAP2 SWAP1 PUSH2 0x1E8 JUMP JUMPDEST PUSH1 0x40 MLOAD DUP1 SWAP2 SUB SWAP1 RETURN JUMPDEST PUSH1 0x0 PUSH1 0x1 DUP3 SUB PUSH2 0x9C JUMPI PUSH1 0x0 SWAP1 POP PUSH2 0x10A JUMP JUMPDEST PUSH1 0x0 PUSH1 0x2 SWAP1 POP JUMPDEST DUP3 DUP2 LT ISZERO PUSH2 0xDB JUMPI PUSH1 0x0 DUP4 DUP3 PUSH2 0xB9 SWAP2 SWAP1 PUSH2 0x232 JUMP JUMPDEST SUB PUSH2 0xC8 JUMPI PUSH1 0x0 SWAP2 POP POP PUSH2 0x10A JUMP JUMPDEST DUP1 DUP1 PUSH2 0xD3 SWAP1 PUSH2 0x292 JUMP JUMPDEST SWAP2 POP POP PUSH2 0xA3 JUMP JUMPDEST POP PUSH1 0x0 DUP3 SWAP1 DUP1 PUSH1 0x1 DUP2 SLOAD ADD DUP1 DUP3 SSTORE DUP1 SWAP2 POP POP PUSH1 0x1 SWAP1 SUB SWAP1 PUSH1 0x0 MSTORE PUSH1 0x20 PUSH1 0x0 KECCAK256 ADD PUSH1 0x0 SWAP1 SWAP2 SWAP1 SWAP2 SWAP1 SWAP2 POP SSTORE PUSH1 0x1 SWAP1 POP JUMPDEST SWAP2 SWAP1 POP JUMP JUMPDEST PUSH1 0x0 DUP1 PUSH1 0x0 SWAP1 POP JUMPDEST PUSH1 0x0 DUP1 SLOAD SWAP1 POP DUP2 LT ISZERO PUSH2 0x137 JUMPI DUP1 DUP1 PUSH2 0x12F SWAP1 PUSH2 0x292 JUMP JUMPDEST SWAP2 POP POP PUSH2 0x117 JUMP JUMPDEST POP SWAP1 JUMP JUMPDEST PUSH1 0x0 DUP1 REVERT JUMPDEST PUSH1 0x0 DUP2 SWAP1 POP SWAP2 SWAP1 POP JUMP JUMPDEST PUSH2 0x153 DUP2 PUSH2 0x140 JUMP JUMPDEST DUP2 EQ PUSH2 0x15E JUMPI PUSH1 0x0 DUP1 REVERT JUMPDEST POP JUMP JUMPDEST PUSH1 0x0 DUP2 CALLDATALOAD SWAP1 POP PUSH2 0x170 DUP2 PUSH2 0x14A JUMP JUMPDEST SWAP3 SWAP2 POP POP JUMP JUMPDEST PUSH1 0x0 PUSH1 0x20 DUP3 DUP5 SUB SLT ISZERO PUSH2 0x18C JUMPI PUSH2 0x18B PUSH2 0x13B JUMP JUMPDEST JUMPDEST PUSH1 0x0 PUSH2 0x19A DUP5 DUP3 DUP6 ADD PUSH2 0x161 JUMP JUMPDEST SWAP2 POP POP SWAP3 SWAP2 POP POP JUMP JUMPDEST PUSH1 0x0 DUP2 ISZERO ISZERO SWAP1 POP SWAP2 SWAP1 POP JUMP JUMPDEST PUSH2 0x1B8 DUP2 PUSH2 0x1A3 JUMP JUMPDEST DUP3 MSTORE POP POP JUMP JUMPDEST PUSH1 0x0 PUSH1 0x20 DUP3 ADD SWAP1 POP PUSH2 0x1D3 PUSH1 0x0 DUP4 ADD DUP5 PUSH2 0x1AF JUMP JUMPDEST SWAP3 SWAP2 POP POP JUMP JUMPDEST PUSH2 0x1E2 DUP2 PUSH2 0x140 JUMP JUMPDEST DUP3 MSTORE POP POP JUMP JUMPDEST PUSH1 0x0 PUSH1 0x20 DUP3 ADD SWAP1 POP PUSH2 0x1FD PUSH1 0x0 DUP4 ADD DUP5 PUSH2 0x1D9 JUMP JUMPDEST SWAP3 SWAP2 POP POP JUMP JUMPDEST PUSH32 0x4E487B7100000000000000000000000000000000000000000000000000000000 PUSH1 0x0 MSTORE PUSH1 0x12 PUSH1 0x4 MSTORE PUSH1 0x24 PUSH1 0x0 REVERT JUMPDEST PUSH1 0x0 PUSH2 0x23D DUP3 PUSH2 0x140 JUMP JUMPDEST SWAP2 POP PUSH2 0x248 DUP4 PUSH2 0x140 JUMP JUMPDEST SWAP3 POP DUP3 PUSH2 0x258 JUMPI PUSH2 0x257 PUSH2 0x203 JUMP JUMPDEST JUMPDEST DUP3 DUP3 MOD SWAP1 POP SWAP3 SWAP2 POP POP JUMP JUMPDEST PUSH32 0x4E487B7100000000000000000000000000000000000000000000000000000000 PUSH1 0x0 MSTORE PUSH1 0x11 PUSH1 0x4 MSTORE PUSH1 0x24 PUSH1 0x0 REVERT JUMPDEST PUSH1 0x0 PUSH2 0x29D DUP3 PUSH2 0x140 JUMP JUMPDEST SWAP2 POP PUSH32 0xFFFFFFFFFFFFFFFFFFFFFFFFFFFFFFFFFFFFFFFFFFFFFFFFFFFFFFFFFFFFFFFF DUP3 SUB PUSH2 0x2CF JUMPI PUSH2 0x2CE PUSH2 0x263 JUMP JUMPDEST JUMPDEST PUSH1 0x1 DUP3 ADD SWAP1 POP SWAP2 SWAP1 POP JUMP INVALID LOG2 PUSH5 0x6970667358 0x22 SLT KECCAK256 0xA6 SWAP3 0x2D 0xDD 0x4C SAR DUP8 STOP 0x2D 0xA9 PUSH25 0x38AA803CDA1FD8567B471D83812ABC08E21540213464736F6C PUSH4 0x43000810 STOP CALLER "
				},
				"gasEstimates": {
					"creation": {
						"codeDepositCost": "156800",
						"executionCost": "202",
						"totalCost": "157002"
					},
					"external": {
						"addPrime(uint256)": "infinite",
						"getPrime()": "infinite"
					}
				},
				"methodIdentifiers": {
					"addPrime(uint256)": "725b3fdd",
					"getPrime()": "c90ce464"
				}
			},
			"storageLayout": {
				"storage": [
					{
						"astId": 4,
						"contract": "STD1/AllPrimeNumber/AllPrimeNumber.sol:ALLPrimeNumber",
						"label": "arrayPrime",
						"offset": 0,
						"slot": "0",
						"type": "t_array(t_uint256)dyn_storage"
					}
				],
				"types": {
					"t_array(t_uint256)dyn_storage": {
						"base": "t_uint256",
						"encoding": "dynamic_array",
						"label": "uint256[]",
						"numberOfBytes": "32"
					},
					"t_uint256": {
						"encoding": "inplace",
						"label": "uint256",
						"numberOfBytes": "32"
					}
				}
			},
			"userdoc": {
				"kind": "user",
				"methods": {},
				"version": 1
			}
		}
	}
}