{
	"STD1/AllPrimeNumber/AllPrimeNumber.sol": {
		"ALLPrimeNumber": {
			"abi": [
				{
					"inputs": [
						{
							"internalType": "uint256",
							"name": "nbr",
							"type": "uint256"
						}
					],
					"name": "addPrime",
					"outputs": [
						{
							"internalType": "bool",
							"name": "",
							"type": "bool"
						}
					],
					"stateMutability": "nonpayable",
					"type": "function"
				},
				{
					"inputs": [],
					"name": "getPrime",
					"outputs": [
						{
							"internalType": "uint256[]",
							"name": "",
							"type": "uint256[]"
						}
					],
					"stateMutability": "view",
					"type": "function"
				}
			],
			"devdoc": {
				"kind": "dev",
				"methods": {},
				"version": 1
			},
			"evm": {
				"assembly": "    /* \"STD1/AllPrimeNumber/AllPrimeNumber.sol\":58:491  contract ALLPrimeNumber{... */\n  mstore(0x40, 0x80)\n  callvalue\n  dup1\n  iszero\n  tag_1\n  jumpi\n  0x00\n  dup1\n  revert\ntag_1:\n  pop\n  dataSize(sub_0)\n  dup1\n  dataOffset(sub_0)\n  0x00\n  codecopy\n  0x00\n  return\nstop\n\nsub_0: assembly {\n        /* \"STD1/AllPrimeNumber/AllPrimeNumber.sol\":58:491  contract ALLPrimeNumber{... */\n      mstore(0x40, 0x80)\n      callvalue\n      dup1\n      iszero\n      tag_1\n      jumpi\n      0x00\n      dup1\n      revert\n    tag_1:\n      pop\n      jumpi(tag_2, lt(calldatasize, 0x04))\n      shr(0xe0, calldataload(0x00))\n      dup1\n      0x725b3fdd\n      eq\n      tag_3\n      jumpi\n      dup1\n      0xc90ce464\n      eq\n      tag_4\n      jumpi\n    tag_2:\n      0x00\n      dup1\n      revert\n        /* \"STD1/AllPrimeNumber/AllPrimeNumber.sol\":111:394  function addPrime(uint nbr) public returns (bool){... */\n    tag_3:\n      tag_5\n      0x04\n      dup1\n      calldatasize\n      sub\n      dup2\n      add\n      swap1\n      tag_6\n      swap2\n      swap1\n      tag_7\n      jump\t// in\n    tag_6:\n      tag_8\n      jump\t// in\n    tag_5:\n      mload(0x40)\n      tag_9\n      swap2\n      swap1\n      tag_10\n      jump\t// in\n    tag_9:\n      mload(0x40)\n      dup1\n      swap2\n      sub\n      swap1\n      return\n        /* \"STD1/AllPrimeNumber/AllPrimeNumber.sol\":400:488  function getPrime() public view returns(uint[] memory){... */\n    tag_4:\n      tag_11\n      tag_12\n      jump\t// in\n    tag_11:\n      mload(0x40)\n      tag_13\n      swap2\n      swap1\n      tag_14\n      jump\t// in\n    tag_13:\n      mload(0x40)\n      dup1\n      swap2\n      sub\n      swap1\n      return\n        /* \"STD1/AllPrimeNumber/AllPrimeNumber.sol\":111:394  function addPrime(uint nbr) public returns (bool){... */\n    tag_8:\n        /* \"STD1/AllPrimeNumber/AllPrimeNumber.sol\":155:159  bool */\n      0x00\n        /* \"STD1/AllPrimeNumber/AllPrimeNumber.sol\":180:181  1 */\n      0x01\n        /* \"STD1/AllPrimeNumber/AllPrimeNumber.sol\":173:176  nbr */\n      dup3\n        /* \"STD1/AllPrimeNumber/AllPrimeNumber.sol\":173:181  nbr == 1 */\n      sub\n        /* \"STD1/AllPrimeNumber/AllPrimeNumber.sol\":170:203  if(nbr == 1)... */\n      tag_16\n      jumpi\n        /* \"STD1/AllPrimeNumber/AllPrimeNumber.sol\":198:203  false */\n      0x00\n        /* \"STD1/AllPrimeNumber/AllPrimeNumber.sol\":191:203  return false */\n      swap1\n      pop\n      jump(tag_15)\n        /* \"STD1/AllPrimeNumber/AllPrimeNumber.sol\":170:203  if(nbr == 1)... */\n    tag_16:\n        /* \"STD1/AllPrimeNumber/AllPrimeNumber.sol\":218:224  uint i */\n      0x00\n        /* \"STD1/AllPrimeNumber/AllPrimeNumber.sol\":227:228  2 */\n      0x02\n        /* \"STD1/AllPrimeNumber/AllPrimeNumber.sol\":218:228  uint i = 2 */\n      swap1\n      pop\n        /* \"STD1/AllPrimeNumber/AllPrimeNumber.sol\":214:328  for(uint i = 2; i < nbr; i++){... */\n    tag_17:\n        /* \"STD1/AllPrimeNumber/AllPrimeNumber.sol\":234:237  nbr */\n      dup3\n        /* \"STD1/AllPrimeNumber/AllPrimeNumber.sol\":230:231  i */\n      dup2\n        /* \"STD1/AllPrimeNumber/AllPrimeNumber.sol\":230:237  i < nbr */\n      lt\n        /* \"STD1/AllPrimeNumber/AllPrimeNumber.sol\":214:328  for(uint i = 2; i < nbr; i++){... */\n      iszero\n      tag_18\n      jumpi\n        /* \"STD1/AllPrimeNumber/AllPrimeNumber.sol\":271:272  0 */\n      0x00\n        /* \"STD1/AllPrimeNumber/AllPrimeNumber.sol\":266:267  i */\n      dup2\n        /* \"STD1/AllPrimeNumber/AllPrimeNumber.sol\":260:263  nbr */\n      dup5\n        /* \"STD1/AllPrimeNumber/AllPrimeNumber.sol\":260:267  nbr % i */\n      tag_20\n      swap2\n      swap1\n      tag_21\n      jump\t// in\n    tag_20:\n        /* \"STD1/AllPrimeNumber/AllPrimeNumber.sol\":260:272  nbr % i == 0 */\n      sub\n        /* \"STD1/AllPrimeNumber/AllPrimeNumber.sol\":257:318  if(nbr % i == 0){... */\n      tag_22\n      jumpi\n        /* \"STD1/AllPrimeNumber/AllPrimeNumber.sol\":298:303  false */\n      0x00\n        /* \"STD1/AllPrimeNumber/AllPrimeNumber.sol\":291:303  return false */\n      swap2\n      pop\n      pop\n      jump(tag_15)\n        /* \"STD1/AllPrimeNumber/AllPrimeNumber.sol\":257:318  if(nbr % i == 0){... */\n    tag_22:\n        /* \"STD1/AllPrimeNumber/AllPrimeNumber.sol\":239:242  i++ */\n      dup1\n      dup1\n      tag_23\n      swap1\n      tag_24\n      jump\t// in\n    tag_23:\n      swap2\n      pop\n      pop\n        /* \"STD1/AllPrimeNumber/AllPrimeNumber.sol\":214:328  for(uint i = 2; i < nbr; i++){... */\n      jump(tag_17)\n    tag_18:\n      pop\n        /* \"STD1/AllPrimeNumber/AllPrimeNumber.sol\":346:356  arrayPrime */\n      0x00\n        /* \"STD1/AllPrimeNumber/AllPrimeNumber.sol\":362:365  nbr */\n      dup3\n        /* \"STD1/AllPrimeNumber/AllPrimeNumber.sol\":346:366  arrayPrime.push(nbr) */\n      swap1\n      dup1\n      0x01\n      dup2\n      sload\n      add\n      dup1\n      dup3\n      sstore\n      dup1\n      swap2\n      pop\n      pop\n      0x01\n      swap1\n      sub\n      swap1\n      0x00\n      mstore\n      keccak256(0x00, 0x20)\n      add\n      0x00\n      swap1\n      swap2\n      swap1\n      swap2\n      swap1\n      swap2\n      pop\n      sstore\n        /* \"STD1/AllPrimeNumber/AllPrimeNumber.sol\":383:387  true */\n      0x01\n        /* \"STD1/AllPrimeNumber/AllPrimeNumber.sol\":376:387  return true */\n      swap1\n      pop\n        /* \"STD1/AllPrimeNumber/AllPrimeNumber.sol\":111:394  function addPrime(uint nbr) public returns (bool){... */\n    tag_15:\n      swap2\n      swap1\n      pop\n      jump\t// out\n        /* \"STD1/AllPrimeNumber/AllPrimeNumber.sol\":400:488  function getPrime() public view returns(uint[] memory){... */\n    tag_12:\n        /* \"STD1/AllPrimeNumber/AllPrimeNumber.sol\":440:453  uint[] memory */\n      0x60\n        /* \"STD1/AllPrimeNumber/AllPrimeNumber.sol\":471:481  arrayPrime */\n      0x00\n        /* \"STD1/AllPrimeNumber/AllPrimeNumber.sol\":464:481  return arrayPrime */\n      dup1\n      sload\n      dup1\n      0x20\n      mul\n      0x20\n      add\n      mload(0x40)\n      swap1\n      dup2\n      add\n      0x40\n      mstore\n      dup1\n      swap3\n      swap2\n      swap1\n      dup2\n      dup2\n      mstore\n      0x20\n      add\n      dup3\n      dup1\n      sload\n      dup1\n      iszero\n      tag_27\n      jumpi\n      0x20\n      mul\n      dup3\n      add\n      swap2\n      swap1\n      0x00\n      mstore\n      keccak256(0x00, 0x20)\n      swap1\n    tag_28:\n      dup2\n      sload\n      dup2\n      mstore\n      0x20\n      add\n      swap1\n      0x01\n      add\n      swap1\n      dup1\n      dup4\n      gt\n      tag_28\n      jumpi\n    tag_27:\n      pop\n      pop\n      pop\n      pop\n      pop\n      swap1\n      pop\n        /* \"STD1/AllPrimeNumber/AllPrimeNumber.sol\":400:488  function getPrime() public view returns(uint[] memory){... */\n      swap1\n      jump\t// out\n        /* \"#utility.yul\":88:205   */\n    tag_30:\n        /* \"#utility.yul\":197:198   */\n      0x00\n        /* \"#utility.yul\":194:195   */\n      dup1\n        /* \"#utility.yul\":187:199   */\n      revert\n        /* \"#utility.yul\":334:411   */\n    tag_32:\n        /* \"#utility.yul\":371:378   */\n      0x00\n        /* \"#utility.yul\":400:405   */\n      dup2\n        /* \"#utility.yul\":389:405   */\n      swap1\n      pop\n        /* \"#utility.yul\":334:411   */\n      swap2\n      swap1\n      pop\n      jump\t// out\n        /* \"#utility.yul\":417:539   */\n    tag_33:\n        /* \"#utility.yul\":490:514   */\n      tag_52\n        /* \"#utility.yul\":508:513   */\n      dup2\n        /* \"#utility.yul\":490:514   */\n      tag_32\n      jump\t// in\n    tag_52:\n        /* \"#utility.yul\":483:488   */\n      dup2\n        /* \"#utility.yul\":480:515   */\n      eq\n        /* \"#utility.yul\":470:533   */\n      tag_53\n      jumpi\n        /* \"#utility.yul\":529:530   */\n      0x00\n        /* \"#utility.yul\":526:527   */\n      dup1\n        /* \"#utility.yul\":519:531   */\n      revert\n        /* \"#utility.yul\":470:533   */\n    tag_53:\n        /* \"#utility.yul\":417:539   */\n      pop\n      jump\t// out\n        /* \"#utility.yul\":545:684   */\n    tag_34:\n        /* \"#utility.yul\":591:596   */\n      0x00\n        /* \"#utility.yul\":629:635   */\n      dup2\n        /* \"#utility.yul\":616:636   */\n      calldataload\n        /* \"#utility.yul\":607:636   */\n      swap1\n      pop\n        /* \"#utility.yul\":645:678   */\n      tag_55\n        /* \"#utility.yul\":672:677   */\n      dup2\n        /* \"#utility.yul\":645:678   */\n      tag_33\n      jump\t// in\n    tag_55:\n        /* \"#utility.yul\":545:684   */\n      swap3\n      swap2\n      pop\n      pop\n      jump\t// out\n        /* \"#utility.yul\":690:1019   */\n    tag_7:\n        /* \"#utility.yul\":749:755   */\n      0x00\n        /* \"#utility.yul\":798:800   */\n      0x20\n        /* \"#utility.yul\":786:795   */\n      dup3\n        /* \"#utility.yul\":777:784   */\n      dup5\n        /* \"#utility.yul\":773:796   */\n      sub\n        /* \"#utility.yul\":769:801   */\n      slt\n        /* \"#utility.yul\":766:885   */\n      iszero\n      tag_57\n      jumpi\n        /* \"#utility.yul\":804:883   */\n      tag_58\n      tag_30\n      jump\t// in\n    tag_58:\n        /* \"#utility.yul\":766:885   */\n    tag_57:\n        /* \"#utility.yul\":924:925   */\n      0x00\n        /* \"#utility.yul\":949:1002   */\n      tag_59\n        /* \"#utility.yul\":994:1001   */\n      dup5\n        /* \"#utility.yul\":985:991   */\n      dup3\n        /* \"#utility.yul\":974:983   */\n      dup6\n        /* \"#utility.yul\":970:992   */\n      add\n        /* \"#utility.yul\":949:1002   */\n      tag_34\n      jump\t// in\n    tag_59:\n        /* \"#utility.yul\":939:1002   */\n      swap2\n      pop\n        /* \"#utility.yul\":895:1012   */\n      pop\n        /* \"#utility.yul\":690:1019   */\n      swap3\n      swap2\n      pop\n      pop\n      jump\t// out\n        /* \"#utility.yul\":1025:1115   */\n    tag_35:\n        /* \"#utility.yul\":1059:1066   */\n      0x00\n        /* \"#utility.yul\":1102:1107   */\n      dup2\n        /* \"#utility.yul\":1095:1108   */\n      iszero\n        /* \"#utility.yul\":1088:1109   */\n      iszero\n        /* \"#utility.yul\":1077:1109   */\n      swap1\n      pop\n        /* \"#utility.yul\":1025:1115   */\n      swap2\n      swap1\n      pop\n      jump\t// out\n        /* \"#utility.yul\":1121:1230   */\n    tag_36:\n        /* \"#utility.yul\":1202:1223   */\n      tag_62\n        /* \"#utility.yul\":1217:1222   */\n      dup2\n        /* \"#utility.yul\":1202:1223   */\n      tag_35\n      jump\t// in\n    tag_62:\n        /* \"#utility.yul\":1197:1200   */\n      dup3\n        /* \"#utility.yul\":1190:1224   */\n      mstore\n        /* \"#utility.yul\":1121:1230   */\n      pop\n      pop\n      jump\t// out\n        /* \"#utility.yul\":1236:1446   */\n    tag_10:\n        /* \"#utility.yul\":1323:1327   */\n      0x00\n        /* \"#utility.yul\":1361:1363   */\n      0x20\n        /* \"#utility.yul\":1350:1359   */\n      dup3\n        /* \"#utility.yul\":1346:1364   */\n      add\n        /* \"#utility.yul\":1338:1364   */\n      swap1\n      pop\n        /* \"#utility.yul\":1374:1439   */\n      tag_64\n        /* \"#utility.yul\":1436:1437   */\n      0x00\n        /* \"#utility.yul\":1425:1434   */\n      dup4\n        /* \"#utility.yul\":1421:1438   */\n      add\n        /* \"#utility.yul\":1412:1418   */\n      dup5\n        /* \"#utility.yul\":1374:1439   */\n      tag_36\n      jump\t// in\n    tag_64:\n        /* \"#utility.yul\":1236:1446   */\n      swap3\n      swap2\n      pop\n      pop\n      jump\t// out\n        /* \"#utility.yul\":1452:1566   */\n    tag_37:\n        /* \"#utility.yul\":1519:1525   */\n      0x00\n        /* \"#utility.yul\":1553:1558   */\n      dup2\n        /* \"#utility.yul\":1547:1559   */\n      mload\n        /* \"#utility.yul\":1537:1559   */\n      swap1\n      pop\n        /* \"#utility.yul\":1452:1566   */\n      swap2\n      swap1\n      pop\n      jump\t// out\n        /* \"#utility.yul\":1572:1756   */\n    tag_38:\n        /* \"#utility.yul\":1671:1682   */\n      0x00\n        /* \"#utility.yul\":1705:1711   */\n      dup3\n        /* \"#utility.yul\":1700:1703   */\n      dup3\n        /* \"#utility.yul\":1693:1712   */\n      mstore\n        /* \"#utility.yul\":1745:1749   */\n      0x20\n        /* \"#utility.yul\":1740:1743   */\n      dup3\n        /* \"#utility.yul\":1736:1750   */\n      add\n        /* \"#utility.yul\":1721:1750   */\n      swap1\n      pop\n        /* \"#utility.yul\":1572:1756   */\n      swap3\n      swap2\n      pop\n      pop\n      jump\t// out\n        /* \"#utility.yul\":1762:1894   */\n    tag_39:\n        /* \"#utility.yul\":1829:1833   */\n      0x00\n        /* \"#utility.yul\":1852:1855   */\n      dup2\n        /* \"#utility.yul\":1844:1855   */\n      swap1\n      pop\n        /* \"#utility.yul\":1882:1886   */\n      0x20\n        /* \"#utility.yul\":1877:1880   */\n      dup3\n        /* \"#utility.yul\":1873:1887   */\n      add\n        /* \"#utility.yul\":1865:1887   */\n      swap1\n      pop\n        /* \"#utility.yul\":1762:1894   */\n      swap2\n      swap1\n      pop\n      jump\t// out\n        /* \"#utility.yul\":1900:2008   */\n    tag_40:\n        /* \"#utility.yul\":1977:2001   */\n      tag_69\n        /* \"#utility.yul\":1995:2000   */\n      dup2\n        /* \"#utility.yul\":1977:2001   */\n      tag_32\n      jump\t// in\n    tag_69:\n        /* \"#utility.yul\":1972:1975   */\n      dup3\n        /* \"#utility.yul\":1965:2002   */\n      mstore\n        /* \"#utility.yul\":1900:2008   */\n      pop\n      pop\n      jump\t// out\n        /* \"#utility.yul\":2014:2193   */\n    tag_41:\n        /* \"#utility.yul\":2083:2093   */\n      0x00\n        /* \"#utility.yul\":2104:2150   */\n      tag_71\n        /* \"#utility.yul\":2146:2149   */\n      dup4\n        /* \"#utility.yul\":2138:2144   */\n      dup4\n        /* \"#utility.yul\":2104:2150   */\n      tag_40\n      jump\t// in\n    tag_71:\n        /* \"#utility.yul\":2182:2186   */\n      0x20\n        /* \"#utility.yul\":2177:2180   */\n      dup4\n        /* \"#utility.yul\":2173:2187   */\n      add\n        /* \"#utility.yul\":2159:2187   */\n      swap1\n      pop\n        /* \"#utility.yul\":2014:2193   */\n      swap3\n      swap2\n      pop\n      pop\n      jump\t// out\n        /* \"#utility.yul\":2199:2312   */\n    tag_42:\n        /* \"#utility.yul\":2269:2273   */\n      0x00\n        /* \"#utility.yul\":2301:2305   */\n      0x20\n        /* \"#utility.yul\":2296:2299   */\n      dup3\n        /* \"#utility.yul\":2292:2306   */\n      add\n        /* \"#utility.yul\":2284:2306   */\n      swap1\n      pop\n        /* \"#utility.yul\":2199:2312   */\n      swap2\n      swap1\n      pop\n      jump\t// out\n        /* \"#utility.yul\":2348:3080   */\n    tag_43:\n        /* \"#utility.yul\":2467:2470   */\n      0x00\n        /* \"#utility.yul\":2496:2550   */\n      tag_74\n        /* \"#utility.yul\":2544:2549   */\n      dup3\n        /* \"#utility.yul\":2496:2550   */\n      tag_37\n      jump\t// in\n    tag_74:\n        /* \"#utility.yul\":2566:2652   */\n      tag_75\n        /* \"#utility.yul\":2645:2651   */\n      dup2\n        /* \"#utility.yul\":2640:2643   */\n      dup6\n        /* \"#utility.yul\":2566:2652   */\n      tag_38\n      jump\t// in\n    tag_75:\n        /* \"#utility.yul\":2559:2652   */\n      swap4\n      pop\n        /* \"#utility.yul\":2676:2732   */\n      tag_76\n        /* \"#utility.yul\":2726:2731   */\n      dup4\n        /* \"#utility.yul\":2676:2732   */\n      tag_39\n      jump\t// in\n    tag_76:\n        /* \"#utility.yul\":2755:2762   */\n      dup1\n        /* \"#utility.yul\":2786:2787   */\n      0x00\n        /* \"#utility.yul\":2771:3055   */\n    tag_77:\n        /* \"#utility.yul\":2796:2802   */\n      dup4\n        /* \"#utility.yul\":2793:2794   */\n      dup2\n        /* \"#utility.yul\":2790:2803   */\n      lt\n        /* \"#utility.yul\":2771:3055   */\n      iszero\n      tag_79\n      jumpi\n        /* \"#utility.yul\":2872:2878   */\n      dup2\n        /* \"#utility.yul\":2866:2879   */\n      mload\n        /* \"#utility.yul\":2899:2962   */\n      tag_80\n        /* \"#utility.yul\":2958:2961   */\n      dup9\n        /* \"#utility.yul\":2943:2956   */\n      dup3\n        /* \"#utility.yul\":2899:2962   */\n      tag_41\n      jump\t// in\n    tag_80:\n        /* \"#utility.yul\":2892:2962   */\n      swap8\n      pop\n        /* \"#utility.yul\":2985:3045   */\n      tag_81\n        /* \"#utility.yul\":3038:3044   */\n      dup4\n        /* \"#utility.yul\":2985:3045   */\n      tag_42\n      jump\t// in\n    tag_81:\n        /* \"#utility.yul\":2975:3045   */\n      swap3\n      pop\n        /* \"#utility.yul\":2831:3055   */\n      pop\n        /* \"#utility.yul\":2818:2819   */\n      0x01\n        /* \"#utility.yul\":2815:2816   */\n      dup2\n        /* \"#utility.yul\":2811:2820   */\n      add\n        /* \"#utility.yul\":2806:2820   */\n      swap1\n      pop\n        /* \"#utility.yul\":2771:3055   */\n      jump(tag_77)\n    tag_79:\n        /* \"#utility.yul\":2775:2789   */\n      pop\n        /* \"#utility.yul\":3071:3074   */\n      dup6\n        /* \"#utility.yul\":3064:3074   */\n      swap4\n      pop\n        /* \"#utility.yul\":2472:3080   */\n      pop\n      pop\n      pop\n        /* \"#utility.yul\":2348:3080   */\n      swap3\n      swap2\n      pop\n      pop\n      jump\t// out\n        /* \"#utility.yul\":3086:3459   */\n    tag_14:\n        /* \"#utility.yul\":3229:3233   */\n      0x00\n        /* \"#utility.yul\":3267:3269   */\n      0x20\n        /* \"#utility.yul\":3256:3265   */\n      dup3\n        /* \"#utility.yul\":3252:3270   */\n      add\n        /* \"#utility.yul\":3244:3270   */\n      swap1\n      pop\n        /* \"#utility.yul\":3316:3325   */\n      dup2\n        /* \"#utility.yul\":3310:3314   */\n      dup2\n        /* \"#utility.yul\":3306:3326   */\n      sub\n        /* \"#utility.yul\":3302:3303   */\n      0x00\n        /* \"#utility.yul\":3291:3300   */\n      dup4\n        /* \"#utility.yul\":3287:3304   */\n      add\n        /* \"#utility.yul\":3280:3327   */\n      mstore\n        /* \"#utility.yul\":3344:3452   */\n      tag_83\n        /* \"#utility.yul\":3447:3451   */\n      dup2\n        /* \"#utility.yul\":3438:3444   */\n      dup5\n        /* \"#utility.yul\":3344:3452   */\n      tag_43\n      jump\t// in\n    tag_83:\n        /* \"#utility.yul\":3336:3452   */\n      swap1\n      pop\n        /* \"#utility.yul\":3086:3459   */\n      swap3\n      swap2\n      pop\n      pop\n      jump\t// out\n        /* \"#utility.yul\":3465:3645   */\n    tag_44:\n        /* \"#utility.yul\":3513:3590   */\n      0x4e487b7100000000000000000000000000000000000000000000000000000000\n        /* \"#utility.yul\":3510:3511   */\n      0x00\n        /* \"#utility.yul\":3503:3591   */\n      mstore\n        /* \"#utility.yul\":3610:3614   */\n      0x12\n        /* \"#utility.yul\":3607:3608   */\n      0x04\n        /* \"#utility.yul\":3600:3615   */\n      mstore\n        /* \"#utility.yul\":3634:3638   */\n      0x24\n        /* \"#utility.yul\":3631:3632   */\n      0x00\n        /* \"#utility.yul\":3624:3639   */\n      revert\n        /* \"#utility.yul\":3651:3827   */\n    tag_21:\n        /* \"#utility.yul\":3683:3684   */\n      0x00\n        /* \"#utility.yul\":3700:3720   */\n      tag_86\n        /* \"#utility.yul\":3718:3719   */\n      dup3\n        /* \"#utility.yul\":3700:3720   */\n      tag_32\n      jump\t// in\n    tag_86:\n        /* \"#utility.yul\":3695:3720   */\n      swap2\n      pop\n        /* \"#utility.yul\":3734:3754   */\n      tag_87\n        /* \"#utility.yul\":3752:3753   */\n      dup4\n        /* \"#utility.yul\":3734:3754   */\n      tag_32\n      jump\t// in\n    tag_87:\n        /* \"#utility.yul\":3729:3754   */\n      swap3\n      pop\n        /* \"#utility.yul\":3773:3774   */\n      dup3\n        /* \"#utility.yul\":3763:3798   */\n      tag_88\n      jumpi\n        /* \"#utility.yul\":3778:3796   */\n      tag_89\n      tag_44\n      jump\t// in\n    tag_89:\n        /* \"#utility.yul\":3763:3798   */\n    tag_88:\n        /* \"#utility.yul\":3819:3820   */\n      dup3\n        /* \"#utility.yul\":3816:3817   */\n      dup3\n        /* \"#utility.yul\":3812:3821   */\n      mod\n        /* \"#utility.yul\":3807:3821   */\n      swap1\n      pop\n        /* \"#utility.yul\":3651:3827   */\n      swap3\n      swap2\n      pop\n      pop\n      jump\t// out\n        /* \"#utility.yul\":3833:4013   */\n    tag_45:\n        /* \"#utility.yul\":3881:3958   */\n      0x4e487b7100000000000000000000000000000000000000000000000000000000\n        /* \"#utility.yul\":3878:3879   */\n      0x00\n        /* \"#utility.yul\":3871:3959   */\n      mstore\n        /* \"#utility.yul\":3978:3982   */\n      0x11\n        /* \"#utility.yul\":3975:3976   */\n      0x04\n        /* \"#utility.yul\":3968:3983   */\n      mstore\n        /* \"#utility.yul\":4002:4006   */\n      0x24\n        /* \"#utility.yul\":3999:4000   */\n      0x00\n        /* \"#utility.yul\":3992:4007   */\n      revert\n        /* \"#utility.yul\":4019:4252   */\n    tag_24:\n        /* \"#utility.yul\":4058:4061   */\n      0x00\n        /* \"#utility.yul\":4081:4105   */\n      tag_92\n        /* \"#utility.yul\":4099:4104   */\n      dup3\n        /* \"#utility.yul\":4081:4105   */\n      tag_32\n      jump\t// in\n    tag_92:\n        /* \"#utility.yul\":4072:4105   */\n      swap2\n      pop\n        /* \"#utility.yul\":4127:4193   */\n      0xffffffffffffffffffffffffffffffffffffffffffffffffffffffffffffffff\n        /* \"#utility.yul\":4120:4125   */\n      dup3\n        /* \"#utility.yul\":4117:4194   */\n      sub\n        /* \"#utility.yul\":4114:4217   */\n      tag_93\n      jumpi\n        /* \"#utility.yul\":4197:4215   */\n      tag_94\n      tag_45\n      jump\t// in\n    tag_94:\n        /* \"#utility.yul\":4114:4217   */\n    tag_93:\n        /* \"#utility.yul\":4244:4245   */\n      0x01\n        /* \"#utility.yul\":4237:4242   */\n      dup3\n        /* \"#utility.yul\":4233:4246   */\n      add\n        /* \"#utility.yul\":4226:4246   */\n      swap1\n      pop\n        /* \"#utility.yul\":4019:4252   */\n      swap2\n      swap1\n      pop\n      jump\t// out\n\n    auxdata: 0xa26469706673582212202ce448f07879de007edcd8f406969c9649c7a68711883b02c3f63c019fd0f40a64736f6c63430008100033\n}\n",
				"bytecode": {
					"linkReferences": {},
					"object": "608060405234801561001057600080fd5b506103f2806100206000396000f3fe608060405234801561001057600080fd5b50600436106100365760003560e01c8063725b3fdd1461003b578063c90ce4641461006b575b600080fd5b610055600480360381019061005091906101a2565b610089565b60405161006291906101ea565b60405180910390f35b61007361010f565b60405161008091906102c3565b60405180910390f35b60006001820361009c576000905061010a565b6000600290505b828110156100db57600081846100b99190610314565b036100c857600091505061010a565b80806100d390610374565b9150506100a3565b506000829080600181540180825580915050600190039060005260206000200160009091909190915055600190505b919050565b6060600080548060200260200160405190810160405280929190818152602001828054801561015d57602002820191906000526020600020905b815481526020019060010190808311610149575b5050505050905090565b600080fd5b6000819050919050565b61017f8161016c565b811461018a57600080fd5b50565b60008135905061019c81610176565b92915050565b6000602082840312156101b8576101b7610167565b5b60006101c68482850161018d565b91505092915050565b60008115159050919050565b6101e4816101cf565b82525050565b60006020820190506101ff60008301846101db565b92915050565b600081519050919050565b600082825260208201905092915050565b6000819050602082019050919050565b61023a8161016c565b82525050565b600061024c8383610231565b60208301905092915050565b6000602082019050919050565b600061027082610205565b61027a8185610210565b935061028583610221565b8060005b838110156102b657815161029d8882610240565b97506102a883610258565b925050600181019050610289565b5085935050505092915050565b600060208201905081810360008301526102dd8184610265565b905092915050565b7f4e487b7100000000000000000000000000000000000000000000000000000000600052601260045260246000fd5b600061031f8261016c565b915061032a8361016c565b92508261033a576103396102e5565b5b828206905092915050565b7f4e487b7100000000000000000000000000000000000000000000000000000000600052601160045260246000fd5b600061037f8261016c565b91507fffffffffffffffffffffffffffffffffffffffffffffffffffffffffffffffff82036103b1576103b0610345565b5b60018201905091905056fea26469706673582212202ce448f07879de007edcd8f406969c9649c7a68711883b02c3f63c019fd0f40a64736f6c63430008100033",
					"opcodes": "PUSH1 0x80 PUSH1 0x40 MSTORE CALLVALUE DUP1 ISZERO PUSH2 0x10 JUMPI PUSH1 0x0 DUP1 REVERT JUMPDEST POP PUSH2 0x3F2 DUP1 PUSH2 0x20 PUSH1 0x0 CODECOPY PUSH1 0x0 RETURN INVALID PUSH1 0x80 PUSH1 0x40 MSTORE CALLVALUE DUP1 ISZERO PUSH2 0x10 JUMPI PUSH1 0x0 DUP1 REVERT JUMPDEST POP PUSH1 0x4 CALLDATASIZE LT PUSH2 0x36 JUMPI PUSH1 0x0 CALLDATALOAD PUSH1 0xE0 SHR DUP1 PUSH4 0x725B3FDD EQ PUSH2 0x3B JUMPI DUP1 PUSH4 0xC90CE464 EQ PUSH2 0x6B JUMPI JUMPDEST PUSH1 0x0 DUP1 REVERT JUMPDEST PUSH2 0x55 PUSH1 0x4 DUP1 CALLDATASIZE SUB DUP2 ADD SWAP1 PUSH2 0x50 SWAP2 SWAP1 PUSH2 0x1A2 JUMP JUMPDEST PUSH2 0x89 JUMP JUMPDEST PUSH1 0x40 MLOAD PUSH2 0x62 SWAP2 SWAP1 PUSH2 0x1EA JUMP JUMPDEST PUSH1 0x40 MLOAD DUP1 SWAP2 SUB SWAP1 RETURN JUMPDEST PUSH2 0x73 PUSH2 0x10F JUMP JUMPDEST PUSH1 0x40 MLOAD PUSH2 0x80 SWAP2 SWAP1 PUSH2 0x2C3 JUMP JUMPDEST PUSH1 0x40 MLOAD DUP1 SWAP2 SUB SWAP1 RETURN JUMPDEST PUSH1 0x0 PUSH1 0x1 DUP3 SUB PUSH2 0x9C JUMPI PUSH1 0x0 SWAP1 POP PUSH2 0x10A JUMP JUMPDEST PUSH1 0x0 PUSH1 0x2 SWAP1 POP JUMPDEST DUP3 DUP2 LT ISZERO PUSH2 0xDB JUMPI PUSH1 0x0 DUP2 DUP5 PUSH2 0xB9 SWAP2 SWAP1 PUSH2 0x314 JUMP JUMPDEST SUB PUSH2 0xC8 JUMPI PUSH1 0x0 SWAP2 POP POP PUSH2 0x10A JUMP JUMPDEST DUP1 DUP1 PUSH2 0xD3 SWAP1 PUSH2 0x374 JUMP JUMPDEST SWAP2 POP POP PUSH2 0xA3 JUMP JUMPDEST POP PUSH1 0x0 DUP3 SWAP1 DUP1 PUSH1 0x1 DUP2 SLOAD ADD DUP1 DUP3 SSTORE DUP1 SWAP2 POP POP PUSH1 0x1 SWAP1 SUB SWAP1 PUSH1 0x0 MSTORE PUSH1 0x20 PUSH1 0x0 KECCAK256 ADD PUSH1 0x0 SWAP1 SWAP2 SWAP1 SWAP2 SWAP1 SWAP2 POP SSTORE PUSH1 0x1 SWAP1 POP JUMPDEST SWAP2 SWAP1 POP JUMP JUMPDEST PUSH1 0x60 PUSH1 0x0 DUP1 SLOAD DUP1 PUSH1 0x20 MUL PUSH1 0x20 ADD PUSH1 0x40 MLOAD SWAP1 DUP2 ADD PUSH1 0x40 MSTORE DUP1 SWAP3 SWAP2 SWAP1 DUP2 DUP2 MSTORE PUSH1 0x20 ADD DUP3 DUP1 SLOAD DUP1 ISZERO PUSH2 0x15D JUMPI PUSH1 0x20 MUL DUP3 ADD SWAP2 SWAP1 PUSH1 0x0 MSTORE PUSH1 0x20 PUSH1 0x0 KECCAK256 SWAP1 JUMPDEST DUP2 SLOAD DUP2 MSTORE PUSH1 0x20 ADD SWAP1 PUSH1 0x1 ADD SWAP1 DUP1 DUP4 GT PUSH2 0x149 JUMPI JUMPDEST POP POP POP POP POP SWAP1 POP SWAP1 JUMP JUMPDEST PUSH1 0x0 DUP1 REVERT JUMPDEST PUSH1 0x0 DUP2 SWAP1 POP SWAP2 SWAP1 POP JUMP JUMPDEST PUSH2 0x17F DUP2 PUSH2 0x16C JUMP JUMPDEST DUP2 EQ PUSH2 0x18A JUMPI PUSH1 0x0 DUP1 REVERT JUMPDEST POP JUMP JUMPDEST PUSH1 0x0 DUP2 CALLDATALOAD SWAP1 POP PUSH2 0x19C DUP2 PUSH2 0x176 JUMP JUMPDEST SWAP3 SWAP2 POP POP JUMP JUMPDEST PUSH1 0x0 PUSH1 0x20 DUP3 DUP5 SUB SLT ISZERO PUSH2 0x1B8 JUMPI PUSH2 0x1B7 PUSH2 0x167 JUMP JUMPDEST JUMPDEST PUSH1 0x0 PUSH2 0x1C6 DUP5 DUP3 DUP6 ADD PUSH2 0x18D JUMP JUMPDEST SWAP2 POP POP SWAP3 SWAP2 POP POP JUMP JUMPDEST PUSH1 0x0 DUP2 ISZERO ISZERO SWAP1 POP SWAP2 SWAP1 POP JUMP JUMPDEST PUSH2 0x1E4 DUP2 PUSH2 0x1CF JUMP JUMPDEST DUP3 MSTORE POP POP JUMP JUMPDEST PUSH1 0x0 PUSH1 0x20 DUP3 ADD SWAP1 POP PUSH2 0x1FF PUSH1 0x0 DUP4 ADD DUP5 PUSH2 0x1DB JUMP JUMPDEST SWAP3 SWAP2 POP POP JUMP JUMPDEST PUSH1 0x0 DUP2 MLOAD SWAP1 POP SWAP2 SWAP1 POP JUMP JUMPDEST PUSH1 0x0 DUP3 DUP3 MSTORE PUSH1 0x20 DUP3 ADD SWAP1 POP SWAP3 SWAP2 POP POP JUMP JUMPDEST PUSH1 0x0 DUP2 SWAP1 POP PUSH1 0x20 DUP3 ADD SWAP1 POP SWAP2 SWAP1 POP JUMP JUMPDEST PUSH2 0x23A DUP2 PUSH2 0x16C JUMP JUMPDEST DUP3 MSTORE POP POP JUMP JUMPDEST PUSH1 0x0 PUSH2 0x24C DUP4 DUP4 PUSH2 0x231 JUMP JUMPDEST PUSH1 0x20 DUP4 ADD SWAP1 POP SWAP3 SWAP2 POP POP JUMP JUMPDEST PUSH1 0x0 PUSH1 0x20 DUP3 ADD SWAP1 POP SWAP2 SWAP1 POP JUMP JUMPDEST PUSH1 0x0 PUSH2 0x270 DUP3 PUSH2 0x205 JUMP JUMPDEST PUSH2 0x27A DUP2 DUP6 PUSH2 0x210 JUMP JUMPDEST SWAP4 POP PUSH2 0x285 DUP4 PUSH2 0x221 JUMP JUMPDEST DUP1 PUSH1 0x0 JUMPDEST DUP4 DUP2 LT ISZERO PUSH2 0x2B6 JUMPI DUP2 MLOAD PUSH2 0x29D DUP9 DUP3 PUSH2 0x240 JUMP JUMPDEST SWAP8 POP PUSH2 0x2A8 DUP4 PUSH2 0x258 JUMP JUMPDEST SWAP3 POP POP PUSH1 0x1 DUP2 ADD SWAP1 POP PUSH2 0x289 JUMP JUMPDEST POP DUP6 SWAP4 POP POP POP POP SWAP3 SWAP2 POP POP JUMP JUMPDEST PUSH1 0x0 PUSH1 0x20 DUP3 ADD SWAP1 POP DUP2 DUP2 SUB PUSH1 0x0 DUP4 ADD MSTORE PUSH2 0x2DD DUP2 DUP5 PUSH2 0x265 JUMP JUMPDEST SWAP1 POP SWAP3 SWAP2 POP POP JUMP JUMPDEST PUSH32 0x4E487B7100000000000000000000000000000000000000000000000000000000 PUSH1 0x0 MSTORE PUSH1 0x12 PUSH1 0x4 MSTORE PUSH1 0x24 PUSH1 0x0 REVERT JUMPDEST PUSH1 0x0 PUSH2 0x31F DUP3 PUSH2 0x16C JUMP JUMPDEST SWAP2 POP PUSH2 0x32A DUP4 PUSH2 0x16C JUMP JUMPDEST SWAP3 POP DUP3 PUSH2 0x33A JUMPI PUSH2 0x339 PUSH2 0x2E5 JUMP JUMPDEST JUMPDEST DUP3 DUP3 MOD SWAP1 POP SWAP3 SWAP2 POP POP JUMP JUMPDEST PUSH32 0x4E487B7100000000000000000000000000000000000000000000000000000000 PUSH1 0x0 MSTORE PUSH1 0x11 PUSH1 0x4 MSTORE PUSH1 0x24 PUSH1 0x0 REVERT JUMPDEST PUSH1 0x0 PUSH2 0x37F DUP3 PUSH2 0x16C JUMP JUMPDEST SWAP2 POP PUSH32 0xFFFFFFFFFFFFFFFFFFFFFFFFFFFFFFFFFFFFFFFFFFFFFFFFFFFFFFFFFFFFFFFF DUP3 SUB PUSH2 0x3B1 JUMPI PUSH2 0x3B0 PUSH2 0x345 JUMP JUMPDEST JUMPDEST PUSH1 0x1 DUP3 ADD SWAP1 POP SWAP2 SWAP1 POP JUMP INVALID LOG2 PUSH5 0x6970667358 0x22 SLT KECCAK256 0x2C 0xE4 BASEFEE CREATE PUSH25 0x79DE007EDCD8F406969C9649C7A68711883B02C3F63C019FD0 DELEGATECALL EXP PUSH5 0x736F6C6343 STOP ADDMOD LT STOP CALLER "
				},
				"gasEstimates": {
					"creation": {
						"codeDepositCost": "202000",
						"executionCost": "245",
						"totalCost": "202245"
					},
					"external": {
						"addPrime(uint256)": "infinite",
						"getPrime()": "infinite"
					}
				},
				"methodIdentifiers": {
					"addPrime(uint256)": "725b3fdd",
					"getPrime()": "c90ce464"
				}
			},
			"storageLayout": {
				"storage": [
					{
						"astId": 4,
						"contract": "STD1/AllPrimeNumber/AllPrimeNumber.sol:ALLPrimeNumber",
						"label": "arrayPrime",
						"offset": 0,
						"slot": "0",
						"type": "t_array(t_uint256)dyn_storage"
					}
				],
				"types": {
					"t_array(t_uint256)dyn_storage": {
						"base": "t_uint256",
						"encoding": "dynamic_array",
						"label": "uint256[]",
						"numberOfBytes": "32"
					},
					"t_uint256": {
						"encoding": "inplace",
						"label": "uint256",
						"numberOfBytes": "32"
					}
				}
			},
			"userdoc": {
				"kind": "user",
				"methods": {},
				"version": 1
			}
		}
	}
}